:020000041000EA
:4000000000000108310100100D00000095010010000000000000000000000000000000000000000000000000000000009101001000000000000000009101001091010010DC
:4000400091010010510C0010910100109101001091010010910100109101001091010010910100109101001091010010910100109101001091010010910100109101001095
:400080009101001091010010910100109101001091010010910100109101001091010010910100109101001091010010910100109101001091010010910100109101001020
:4000C00010B5064C2378002B07D1054B002B02D0044800E000BF0123237010BD8819000800000000D4590010084B10B5002B03D00749084800E000BF07480368002B00D19E
:4001000010BD064B002BFBD09847F9E7000000008C190008D4590010C4020008000000007047EFF3108072B6704780F310887047FFF7F6FF72B6104C104DAC4209DA216844
:400140006268A368043B02DBC858D050FAE70C34F3E70B490B4A0020521A02DD043A8850FCDC094809490860BFF34F8F00F0FAF800F01EF8FEE70000149F01102C9F011049
:40018000881900080C2900080000000808ED00E0FEE7FEE700B504207146084202D0EFF3098001E0EFF30880043002F083F9FEE7002110B5080000F059FA052000F0B8FAD1
:4001C00000F0DCF962B60A4B5B689B0301D502F013F9002000F0F0FE642002F023F9054800F030F905F0C8FC002002F0CBF8F9E70000264000000810F8B5E023504C9B00CF
:40020000E2580F231340D022990092000919885807224C4D0240032A05D0042A05D0002A0FD0494811E028680FE0C022920089581F220A40112A01D0132A04D1802000022D
:4002400003E0424801E0FA20C001002B27D1B223B1210322DB00C900E658635867581B0F3F0F1340174205D0354F7958090F0A40012A01D1F20701D4032B3AD1B023344A05
:40028000DB00E658A158E758C904C90C02F05CFFB603F901B60BC90F7043013127E0012B27D1C823C0210322DB00C900E658635867583F0F174205D0214F7958090F0A4036
:4002C000012A01D1F20703D49B009B0F032B10D1C0227F23D200A758A1583B401F27A658090A3940584302F02FFF310C394002F02BFFE0239B00E3589B069B0FD840154B1B
:4003000068601C691969240A090E013102F01CFFE1B2A860013102F017FF0F4BE860286104000E49C01802F00FFFFA210C4B28758900E01802F008FFA861C003E861F8BDE4
:4003400000002640C000000800366E0100127A0084050000000021403F420F0040420F00E7030000B021E02010B530241F4BC9005A588000520052085A501A58A2431A50C3
:40038000802252045A501A491A4A80209950A021043289019950FF21174AC005995081315A5892009208024380205A505A580006024301205A505A5882435A5000F076FC48
:4003C000FFF71AFF00F04CFC00F054FC01F07AFCB0235B055A78002A02D05B78212B03D10022064BDA605A6010BDC0460000264001000200840500008C050000E00023401B
:40040000024BD86F032318407047C0460400214010B5FFF786FE074A074BD16F0B4007490B43D367102306490A681A42FCD0FFF77CFE10BD04002140FCFF00000100FA058A
:400440008800214070B50F4C0600FFF76AFEE36F0500DB439B0701D1FFF7DAFFB0230A4A9B00D650E26F094B09491340094A1343E36710230A681A42FCD02800FFF755FE94
:4004800070BDC0460400214000002140FCFF0000880021400300FA05436870B50400012B02D1007B06F0C8FD2500A2682B1B01359A4203D9E87B06F0BFFDF6E770BD0000D2
:4004C00010B5034A0349002000F08CFB10BDC0464D7000109904001007B50022030000911000110000F03AFB07BD10B500F074FB10BD10B500F096FB10BD10B50400007BF6
:4005000000F0EAF8606010BD10B50400007B216900F0ACF8606010BD10B5037B0169180000F0C4F810BD10B50400C06800F000F9606010BD10B5C06800F00EF910BD10B552
:400540000400C06800F01AF9606010BD10B5C06800F02EF910BD10B504000C23C05E00F055F8606010BD10B50C23C05E00F066F810BD10B5C06800F043F910BD10B5002214
:400580001849042000F05AFF01221749042000F055FF02221549042000F050FF03221449042000F04BFF04221249100000F046FF05221149042000F041FF06220F4904207E
:4005C00000F03CFF07220E49042000F037FF08220C49042000F032FF09220B49042000F02DFF10BDFB040010090500101905001027050010350500103F0500104D0500101F
:4006000057050010670500107305001070B507250412E4B205400D2C09D801F0B2FF064B1C5D2C41E407E41701F0AFFF01E001246442200070BDC046A419000870B5041291
:40064000E4B20D2C0FD80725054001F09AFF064901220B5D1E002E41164202D0AA4093430B5501F092FF70BDA4190008F8B50C00050001F086FF0C2301225D431300A34088
:400680001A00094E71198F683A4008D13B43AD598B60631C4B60AB4202D94A6000E0FF2401F073FF2000F8BDE000000870B50C00050001F066FF01210C23A1406B43054A0C
:4006C000D3189A680A4201D08A439A6001F05DFF70BDC046E0000008F0B50C2485B0019001F04FFF019B114D5C432B195B68029003932E1971680198FFF7B8FF0700FF288B
:400700000DD173682A59934201D9002373602A1953680399994202D001335360E9E7029801F033FF380005B0F0BDC046E000000810B5040007280AD801F023FF054B0E3317
:400740001A5D002A01D101321A5501F01EFF0120404210BDA419000810B5040007280AD801F00FFF044B0E331A5D012A01D100221A5501F00AFF10BDA419000870B50500FD
:400780001F280ED801F0FDFE084B30335C5D002C02D101225A5501E00124644201F0F5FE01E001246442200070BDC046E000000810B504001F280AD801F0E3FE044B3033F3
:4007C0001A5D012A01D100221A5501F0DEFE10BDE000000870B504000D0001F0D2FE074AA300D3189A69002A01D19D6101E00124644201F0CAFE200070BDC046A419000822
:4008000070B5B024C025144B144A15496405ED00E35CA25C615C665D3F251F242A400C4024039201224311002B407F2219430B003240520413430B4A1C0A110050310B7006
:400840001B0C8B7000234C7011005031595CC1540133062BF8D170BD040600000506000003060000E00000080378012B06D0082B0AD10122054B9A609A6105E0044B1B6810
:40088000181E02D0034800E000207047000038403C1A0008FF0042000022054B1A60054B0132DA67BFF34F8FBFF36F8F7047C0463C1A000804E100E00222044B01215A63F5
:4008C0005B6BC023024A5B00D1507047FC00384000E100E070B5FFF7DFFFFFF7EDFF1C4A5368002B33D101211A4C51601A4A1B49A3501B4B186802F027FC01382300FF28FE
:4009000007D8802109016458164A0002224010435850802201261449D200144C144D99509B5800212200280001F0A8F8AE60114801F0B0FC8021AE6149000020FFF74AFFC5
:4009400020000D494C3000F0A9FBFFF7B5FF70BD3C1A0008000001404C0C000040420F00C8000008FF00FFFF00FF0080804C0010000038403801000899090010044B10B5EB
:400980005B68002B01D1FFF7A5FF024BD86810BD3C1A0008FC00384010B5FFF77DFFFFF78BFF00F06FF810BD0123F7B5104A0600D367BFF34F8FBFF36F8F02220D4D0E4C54
:4009C000EF68524223606368D21B0192002B01D1FFF780FF019BF318053300D9BE1CA6602E61FFF769FF0122044B1A60F7BDC04604E100E0FC0038403C1A000800E100E049
:400A00000748084903680A688A2252005343133AC318FF3A1A7101235B420B607047C046481A00085C0100080122044B10B5DA62FFF7A4FF9630FFF7B7FF10BD481C00084A
:400A40008A21012010B50B4C4900236B0A4A4B43D1180871206B01C288680849D31808601A1D0221064B032000F0BAFC0023E36210BDC046481C0008481A00085C010008A7
:400A8000010A001010B5FFF7DBFF10BDF0B5304E85B00F000390346B01F073FD0123029001932C4D3B1E0CD11533FF336343EB181A79002A05D11F69013FFF3F7A427A4193
:400AC00001928A2380225B006343EB1819695200914201D1FF3A5A71019B002B08D0F36A002B05D01C4B1B68013301D1FFF7A8FFFFF79AFF029801F048FD019B002B05D10E
:400B00008A2040004443043528191CE08A235B006343EB181A79002AFCD0634263418A22DBB252005A43281D8018AA1811790129FCD08A24002264005C432D192A716A7175
:400B4000EA602A613363039B436005B0F0BDC046481C0008481A00085C010008F7B505000F00160000240093194B58600193089B9C421ED231002800FFF788FF0023866099
:400B80009E4204D0F95CC21811740133F8E7C368BF191A1B08991319A14202D8C3600026E5E7FF2BFAD80099C318095D01341975F0E7002EDED10123019A5B425360054B37
:400BC000AD005D196B6B002B00D09847F7BDC0465C010008481C000810B5022000F0A2FC10BD000070B504000E001500FFF772FE22003100022000F021FC0849022000F0BE
:400C000031FC074AA400536D1419013365635365012B01D1FFF7E0FF70BDC046010A0010481C000810B5022000F062FC10BD000010B50248583000F01FFC10BDA01C00082F
:400C400010B50248B03000F017FC10BDA01C000810B5024800F010FC10BDC046A01C000810B5034A80216032042000F089FA10BDA01D000870B501F084FC0500094800F005
:400C80004FFB094C200000F07DFB2000343000F079FB2000683000F075FB280001F075FC70BDC046A01C0008D44C0010F0B5962191B0002001F016FC01F0ECFB002801D1CA
:400CC00001F0DAFB012001F08FFAE8219D4C9E4B626C89011A400A436264626C0193120AD2B23A2A04D1636C984A13400B4363643422002103A803F0A7FF03AA002194483A
:400D000001F0D0F83422002103A803F09DFF03AA01218F4801F0C6F80822042623688D4D134323602369334207D1002D04D0012001F092FB013DF5E701E0002D00D1FEE70B
:400D4000A0260322844CF600A35903AD9343023A1343A35103328149280003F06CFF280001F0B0FF7E4901980B687E4A03400B608021136949041B021B0A0B43136113693A
:400D800001990F270B401361E02301219B00E2583020BA430A438021E250E25809068243E250E2580A431021E2500433E258BA43E250E25882430A438021E250E25809060B
:400DC0000A43E25000212E3800F0C2FB0021032000F0BEFB0021042000F0BAFB0321002000F0B6FB2A005D4B043383CB83C203CB03C2280000F0E2FB002800D0FEE78021E2
:400E0000594A0906A35859480B43A35000F034FC002800D0FEE70321012000F099FB4F4905221831280003F006FF2900012000F087FC002800D0FEE74D49012000F0D2FC26
:400E4000002800D0FEE74B4B4B4AE1580A4001210A43E250E158494A0A408021E250E25809060A43E250A259454B1340A351A259444B13408022920113438022A351A359C9
:400E800012021343A3512F4B1A683F4B13402D4A136001F07DFBC02301225B00E358134204D13A4AA3585B005B08A3506421002001F018FB00218020354B364A000199505E
:400EC0001A58019C019E22408024A40122431A5080200124304AC0001A501A582F4A9C502F4C1A593240C426B60132431A512D4A1A501B582422280003F0A6FE29001448CB
:400F000001F04AF8154C2A002300203343CB43C243CB43C243CB43C22900234801F03CF823002A00443313CB13C213CB13C213CB13C229001D4801F02FF81D4A1D4B1A60BF
:400F400011B0F0BD00002740FF00FFFFFFC5FFDF0000324020A1070000002640804D00109000214000002140087F0000400D03001027000004050000FEFCFFFFFFFF00FF22
:400F8000FFF0FFFFFF8FFFFFFFFCFFFF0C05000000000140140C000000FF00804C0C00000408000001FF0080800232400003324001001180000E1F410A480B4B10B5436071
:400FC0000A4B0B4C83600B4BC3602378002B02D001F052FB05E001F043FB012323700028F6D010BD64010008704D0010E84D0010901E000800006640030010B5FF2480083F
:4010000082009B1ADB009C409940E243214007282DD8174B02F08EF804090E13181D2227186A02401143196221E0586A0240114359621CE0986A02401143996217E0D86A3A
:4010400002401143D96212E0186B0240114319630DE0586B02401143596308E0986B02401143996303E0D86B02401143D96310BD00002140064B10309A68064B9A4203D1DF
:4010800083009858995002E0034B8000C058704700ED00E00000000800000010F7B5051E01913DD00023C05E002802DBA978FFF7A3FF6A680023E85E9201002812DB1A4BBB
:4010C00081088900C918FF2303271C00C0250740FF00BC401A40BA40AD004E59A64332434A5113E003250F2381B20B402940A940FC352F002A408F408A40083B9B080B4C10
:401100009B001B19DE69BE433243DA61074B00259A68074B9A4204D10199FFF7ABFF00E0044D2800FEBDC04600E100E000ED00E000000008010056000369002B03DA89B27C
:401140004160002000E001487047C04601008A000368002B01DB034803E089B2C26081600020704701008A000369002B03DAC36800200B6000E001487047C04601008A0062
:4011800070B5040010000F2C2BD8002A07D1002927D1154B6401E418144B1C6022E000291FD01F260E401CD1104D0F4B6401E4186960AA60CA0831002C6003F045FD31007F
:4011C0002000FFF7B9FF31002A1D2868FFF7C0FF011E04D12868FFF7AFFF011E02D0044900E00449080070BD00002340941E000801018A0003018A00194BF7B51A6801933F
:40120000D76804003B680E00834223D90025A94202D101F0B6F90500019B18680368002B01DB104C10E063095A01A41A012279689B00CB181968A2400C0014400CD10A43A3
:401240001A600021FFF778FF002E07D1280001F09CF903E0044C01E0044CF2E72000FEBD941E00080301880004018A0002018800194BF7B51A680193D76804003B680E0020
:40128000834223D90025A94202D101F07AF90500019B18680368002B01DB104C10E063095A01A41A0122A24079689B00CB18196811420DD00024914319600021FFF73CFFEA
:4012C000002E07D1280001F060F903E0044C01E0044CF2E72000FEBD941E00080301880004018A00020188000A4B1B68DA68136883420DD9430999005B01C31A01209840A7
:4013000052688B581840431E9841034BC01800E002487047941E00080001880004018A00024B1A68002A00D118607047A01E0008F0B52C246043104C1E0024681F0A2018E7
:40134000FF2426403C400D4F06607601F61906610B4E1B0C44606401A4191E04836033434461A3600023059DC261016283619D4201D02B888381F0BDA01E000800002340E4
:4013800000102340F0B5038985B002AD2B800368066A1933AB704368476A0095826AC16A040003930369C068FFF7C2FF00213B000A0000913000FFF7BBFF216B2800FFF74A
:4013C0006DFE0023EA5E002A05DB1F231A401E3B9340024A136005B0F0BDC04600E100E0F7B52C25124C6843276801933C182669002E08D04D4379198869002805D135689D
:40140000002D02DA03E00B4811E00B480FE06768012425004B689D4013882D041D431560F2608C61BC40019BA4B24B62B460FEBDA01E000804028A0007028A002C23584374
:40144000064B1B681818C369934204D9036A9200D150002000E002487047C046A01E00080A028A00034B1A682C235843101881627047C046A01E000873B5002642690400C2
:40148000D56801962B0CB3421CD01B040069136013680369B34215DA01A9FFF765FEB0420CD10198E26903681E0C0378934205D2226A9B009B58002B00D09847310020695A
:4014C000FFF73AFEADB2002D0ED063691D6000251B68636AAB4202D09847656203E0A36A002B00D09847A56163691B6873BD00000A4B1A682C23584310180C23C25E002A80
:4015000009DB1F231A401E3B9340054AD367BFF34F8FBFF36F8F00207047C046A01E000804E100E0084B1A682C23584310180C23C25E002A05DB1F231A401E3B9340034A79
:40154000136000207047C046A01E000800E100E0042819D804290FD94B1EFF3B132B13D81F231940094B8000C018C02304229B00C1504033C25005E00723D0301940034B5F
:401580008000C150002000E0014870470000264001004A00084B8200D218D0239B00D05807231840042806D1C0239B00D0581F231840E1331843704700002640F0B5B024AA
:4015C000254BE4001A59002A01DA244842E08021C279490412060A400168214D8903890B0A431A5102891F4C12042A4011008288D204D20C0A431C495A500F22FF21867A65
:401600001640C27A12010A40170082891202224011003A00C0240A43817BA4050907214032430A43B121C9005A50E0228779D2003F02174039000D4E0D4A9C591440214386
:401640009951018A002009049A590D4009490A402A439A51F0BDC0460000264003004A000000FF0100FF1F00840500008C050000FFF8FFFFFFFF00FEF7B5802106000500AD
:4016800004272B4B2B4C0906E2580A43E2500193B223DB00E3583B4206D1002D04D0012000F0DAFE013DF3E7B122D200A158224B0B40802189050B43A350002E01D0002D83
:4016C00006D0B0228021D200A35809060B43A3500127B223DB00E3583B4206D1002D15D0012000F0B9FE013DF3E7002E10D0002D0ED1B022D200A3585B005B08A350019B25
:40170000019AE3585B005B08A3500FE0002EF0D1B2230222DB00E250B122C021D200A35889050B43A3500020002D00D10348FEBD8C05000000002640FFFFFFCF02004A00BB
:40174000F0B5012819D1C022224BD2009A58002A0CDB8A78901E0E280FD84C78601E11280BD8C8780D7800282FD101E01A4830E07026152D01D9AE4201D2184829E00E79BD
:40178000022E14D0F82124024901F8270C4021007F2412047F033A4011432C4021438024C022C006240520400143D2009950C020C0248005360706403200E4001D590849AA
:4017C000002029400A431A5103E03826122DD4D9D1E7F0BD0000264003004A0001004A00FFFFFFCFF8B50D00012819D1C02180240D4BC9005A582406C826224307001C0087
:401800005A50F600A3593B4206D1002D0AD0012000F022FE013DF5E70020002D03D101E0024800E00248F8BD0000264001004A0002004A00484BF7B51600984200D988E0CE
:401840009A4200D985E0454B994200D981E00123434F3B700197FF2805D80F24030025002340072017E03F4B984202D80F2420400FE03D4B020A984204D8FF240001204042
:40188000104306E0F02503022D012B4013431800364C00252B00FF2E0BD8FF2236011640E022D2020243F0200543F0203343000316E0F0272B4A3F03964204D832043A401A
:4018C000024338000CE032023A401043264A964209D8F0223605120432400243FF2000040443234807E0F022360612051640320002432048F4E70668002EFCDA01981E4E93
:401900004078002803D01D48305800281CDA1C48844667461B4807601B48844667461B480760A320C00084463058A84303436046174D33507059019BA04302437251596004
:401940000E4B0020F15000E012480022084B5A6000E01148FEBDC0460F060000FFFFFF00A41E0008FF040000FF0500000F0F0000E000234000000F0F000026401C05000061
:401980001F1F0000080126403D3D0000040126401405000003004A0001004A00002200238446F0B585B0029203932D4B00912D491A700A68002AFCDA2B4A002611682B4ACD
:4019C000914205D12A4A2B491268521856425641A42200252849D2008C5829002402214A200A029003915560AE4231D0029803990843A8422CD06246AA4216D1029C039D61
:401A0000029E039F009A58686146634601F032FDEB0762081A4300900191009801996B088018594132003B000DE0029803995C6802000B000098290001F01CFD2B00620827
:401A400080185941220001F0F5FC0290039103E000220023029203930298039905B0F0BDA41E0008E0002340080126401F1F000004012640C3C2FFFF00002640F0B5002845
:401A800070D0002A6ED080245368E4021B061F0C9368D5689B042340C0243B43177FA4023B432F043C402343E0241F001669E40433061C403B0023430C1DA40189012350F7
:401AC00043181468FC33002D04D0012D01D1DC6001E00125DD60002E05D155694318FC331D6195695D614518966CFC35AC61731C17D0136BF0241F02F0231B011F40936B87
:401B000024031B0423400F243B43976A3C402343146C2407240C23433401FF26344023436B62D36AC0241D0130231D40536BA4001B02234003242B43556A41182C402343D6
:401B4000D46BFC31A501FF242C4023431D000C24536C00209B001C402B0023438B62136ACB6300E00048F0BD0100B6001E4A0300904238D010D840282ED005D8002831D0ED
:401B800010282DD119482EE0802827D08021100049008B4227D023E0154A904214D008D8A022120690421DD0124AA020934211D016E0114A904209D0104A904208D0104A66
:401BC00090420DD10F480EE0A42003E00E480AE00E4808E0C00306E00D4804E00D4802E00D4800E0002070470600520001005000010000F0090000A0040000F0050000F07A
:401C0000030000F00100520002005200030052000200500005005200FF005200F0230F4A1B06C318934201D8580A15E0EC230C4A1B06C318934203D8580A80235B0207E0F4
:401C4000EA231B06C018904204D88023400A9B02184301E0012040427047C046FFFF0F00FF7F000010B50400FFF7D8FF0022431C02D0E40562426241100010BD0B4B10B5EE
:401C80001B69002B10DB0A4B0A4C1868FFF76EFF0121094B094A995099580029FCD1064909590029F8D100E0054810BD00002340B01E00088C040000000025400C04000088
:401CC0000200500010B5022202490020FFF7B6FB10BDC0461903000870B505000C00FFF7C1FF002826D0002C24D0FEF785FA124B124AFA211A6000225A609D60DC60104B44
:401D0000104A1C691B69240E013454431B0ADBB201335C430C4B8900186801F015FA0100200001F011FA094BC1188020400002F09FFF00E0064870BDB01E0008000100056C
:401D400000002140C0EA2101C4000008482600000600520010B5FFF791FF10BD70B50400FFF780FF002829D0FEF746FAE0228021134B52051A601A6849000A431A605C6078
:401D80000024FA219C60DC600E4B0F4A1D691B692D0E013555431B0ADBB201335D430B4B8900186801F0D0F90100280001F0CCF9074BC118200002F05BFF00E0054870BD78
:401DC000B01E00080000214060F59000C4000008980800000600520070B505000C00FFF741FF00282DD0002C2BD0FEF705FAC0228021154BD2041A601A6849000A431A6092
:401E00008322FA2152005A609D60DC600F4B104A1C691B69240E013454431B0ADBB201335C430C4B8900186801F08EF90100200001F08AF9E1239B00C118002002F018FF4F
:401E400000E0054870BDC046B01E000800002140808D5B00C4000008060052000F4B30B5C0180F4BC009C01800011F23032909D81D00C9008D4013408B400468AC4323434B
:401E8000036009E01D000439C9008D4013408B404468AC432343436030BDC0460000CEBF00100304F7B504000E00150000286ED0002A6CD0012312688B40002A01D14360E6
:401EC00000E08360B30001930F231900B0008140A26A8A4369680B4083401343A3622A7A31002000FFF7BAFF0320710088400322636A83431800EB6813408B4003436362BD
:401F000001231F00B7400097FF43BC462F6962461F40B740A0691031104038436F69A0611F40B740E06A10403843E062A86903221840B0400600E869276B10408A40884012
:401F4000009930430A4397436A6A384356000222206304201640AA6A616B92000240286A324303401A43EB6AD80018230340FF2013432A6B019D520102401343FE2292001D
:401F80002A40934081430B436363002000E00148FEBDC04601005A0000281BD0002919D00D4B0E4AC318DB099B180A681B010260CA6882620A69C2624A6902638A68426215
:401FC0004A6882618A694263CA6900201A600A6A5A6000E0024870470000CEBF0010030401005A0010B50F2402200649064BCA58A2430243CA50F02212028B58A343034384
:402000008B5010BD0000214004F0000010B50F2403200649064BCA58A2430243CA50F02212028B58A34303438B5010BD0000214004F000000449054A054B88580340C02061
:40204000C00103438B5070470000214004F00000FF8FFFFF0449054A054B885803408020C00103438B5070470000214004F00000FF8FFFFF70B50400002000F0A1FA0028C1
:402080000BD1802324065B041C4023000E490F4A8D692A4013438B6115E0002C01D10C4A00E00C4A01210C48FFF752F8002809D1094A1369002BFCDB074B0020DB681B0E61
:4020C000A02B00D0054870BD00F02540FFFFFFFE0100003001010030000023400400420010B5002000F06CFAB0235B055A78002A03D05A780123222A01D8434243411800F6
:4021000010BD000070B50400FFF7EAFF002838D000F037FA0500022C10D10120FFF7AAFF061E2AD1FFF75EFF0721174A53698B4304390B435361FFF77DFF0BE00721124A00
:40214000C82053698B4304390B43536100F084F9FFF780FF07230C4900264A699A43234013434B61052C08D1C82000F075F9FFF74DFF0020FFF77EFF0600280000F005FAF0
:4021800000E0024E300070BD0000264003004200031E03D1084B5869C00F0CE00020012B09D1054918008A69920F1A4201D18869C00F01231840704700002640072370B52D
:4021C000084CA2691A4090420BD0A5699D4303402B43A361002904D0904202D9C82000F03BF970BD00002640F8B50500FFF778FF002844D000F0C5F9B02306005B05002D1E
:4022000015D1E8220120D2009C5CFFF733FFE4B2071E30D1FFF7E6FE1F201A491A4A8B588343143803438B50FFF704FF0FE01F20164A14499C5C144AE4B28B588343143824
:4022400003438B50023800F007F9FFF703FF1F230C480D491C40425800279A4314434450012D08D1092000F0F7F8FFF7CFFE0020FFF700FF0700300000F087F900E0044F89
:402280003800F8BD000026401CFF0000410700000300420070B5050000F073F92C1E20D0124B19681F2901D900241AE0EC68002C17D02C68002C14D05E6800243200002AF4
:4022C00004D0AA42F0D014005269F8E7002E01D15D6000E0656100222C61012401316A61196000F052F9200070BDC046C01E0008F0B5060085B00D00204F042901D001290B
:402300001AD100207C68002C35D01D4B984232D02379B3420ED1A368002B01D02B4209D1E36801A85A689B6842608360057023689847BC606469E6E7BC68022902D1002C5A
:4023400000D024690020002C15D00D4B984212D02379B3420DD1A368002B01D02B4208D1E36801A85A689B68426083600570236898472469E7E705B0F0BDC046C01E000839
:40238000FF00420070B5194C06002368002B0AD100F0F7F823680500002B10D004210020FFF7A6FF0BE001210020FFF7A1FF0028EED002210020FFF79BFF0D4C14E0042173
:4023C0000C4A13698B431361012E01D030BF00E020BF280000F0D9F823680024A34203D008212000FFF784FF200070BDC01E0008FF00420000ED00E010B5E82400F0C1F84E
:40240000064B07495A68A4010A4022435A605A68114059605B6800F0B8F810BD00002640FF00FC0F70B5802504002D02AC4206D9064B186800F09CF8054BE418F6E7054B27
:402440001868604300F094F870BDC046DC0000080080FFFFD800000810B5034B1B78584300F086F810BDC046D40000080122014B9A6070470000254080220020034B12063D
:402480009A649B6C834200DA0148704700002740030046008022054B120198585B68DBB2002B02D08023DB021843704700002640FEE7000002680A4B10B51A6042685A6047
:4024C00082689A60C268DA6002691A6142695A6182699A61C269DA61FFF7EAFF10BDC046D8050008F0B51922002800D14B32E82403258A429241194E640033595242AB4363
:40250000134333513359164F3B403351154B5C68AC4322435A605A6817405F60002808D00023102913D921338B429B415B4201330DE003001D290AD901233A2907D9DB183E
:40254000572904D976338B4240410422131A0F21054A1068884303431360F0BD00002140FFFCFFFFFC00214000002540000000000230800803D001300238FCD1C046C0469F
:402580007047EFF3108072B6704780F310887047094B042803D11A68104318600BE0C022000692041040902204499200885004211A688A431A60704710E000E000002140B8
:4025C000034B8002C0180F23006818407047C04600402440F8B50778012F06D0082F34D11C4B1868FFF7D1FF31E00320FEF77CFE194B984229D000F085FD012825D0022039
:4026000003F0BEFA0600FFF7BCFF124D286003F0BBFA040006281AD0022E0AD1033CB4433000E4B204F04AFF002C0BD100280ED008E0380004F042FF022C03D0002801D1EB
:40264000FFF7A0FE2868FFF7A0FF044800E00020F8BDC046EC1E000801018800FF004200002803D0024B5860002000E001487047EC1E00080100160000B58BB00021282239
:40268000684602F0E1FA6A46154B16489381FB2313835383F83B1377013353770C33D3770132D3776A460232D3776A465B3353846B4601220733DA77FFF7ECFD03F03EFA26
:4026C00003F044FA03F03EFA06A803F08DFA002804D1054B6846019303F05AFA0BB000BD9013000078010008F8050008014B024AD050704778F0010000003C4010B50BF0CB
:4027000037FC10BD10B50A00002808D0FA23FF33994204D8034902F08EFA002000E0024810BDC0460708001601001600F0B5954C0D00A5440993944B08900592994200D8CC
:4027400016E18B18914A93420ED9914A914200D80EE1904A934207D98F4A914200D807E18E4A934200D903E101228D4F7C69A40F144014D0072379690B40022B04D0DBB29A
:4027800002930392002423E00520FFF7BBFC854B04009842F8D001230393DB1817E0824BB021F858E8234905DB00C95C1F2303408B420AD10120FFF717FD7A4B040098429A
:4027C000F8D000230393053301E0052303920293F0231B06EB185E0A0693760200210320FEF70AFD0028F9D1802305005B05F31801930AAB9B1B049300902B00234300D071
:4028000081E0009A05998A427CD280229200B2180792069AB24215D8059A00998A4211D9089A525C04998A55002B07D180235B05F3181B78D31A5A1E9341DBB2009A0132DC
:40284000009205E080225205B218127804998A55079A01369642DCD10025AB4245D0099BAB423CD1C8260198FFF778FA05000120FFF7F2FDA423A422DB032B40D20393427C
:4028800003D1013E002EEED11EE0484B9D4271D1FFF760FA464B05009842F9D0002813D1C8260AA90198FFF797FA05000120FFF7D3FDA423A422DB032B40D203934203D1D0
:4028C000013E002EEDD10FE0384B01209D420CD1FFF740FA364B05009842F9D004E00AA90198FFF7F9F905000120802292009446019B304A634494460193049B079E6344A3
:4029000004937AE71D00002801D0FFF7AFFD00210320FEF7ADFC0028F9D1002C01D026482BE07B695B0009D5029B022B06D10220FFF7E8FB1B4B04009842F8D03B681B0218
:4029400009D4039B002B06D10020FFF74DFC154B04009842F8D0002CE1D1184B9D4207D0174B9D4204D02000002D06D0154804E0154802E0002D93D0B6E78B239B009D446F
:40298000F0BDC046D4FDFFFFFFFFFF0F00001010FFFFFF1300800014FF070016000A001600002640040042001CFF0000010050000200500000FEFFFF1200160002005200A7
:4029C00006005200130016000100160010B50A00002809D0FA23FF33994205D8F93BFF3B0249FFF7A3FE00E0014810BD070800160100160000207047B0235B05588880B2CA
:402A000070470020704710B5FFF726FD10BD000010B5FDF76AFD074B1B681B6800229A5E002A05DB1F231A401E3B9340024A136010BDC046F01E000800E100E010B5FDF7D7
:402A400058FD094B1B681B6800229A5E002A09DB1F231A401E3B9340044AD367BFF34F8FBFF36F8F10BDC046F01E000804E100E0A023034ADB00D058032318407047C046F3
:402A800000002640024B034AD058C00F7047C0461C0500000000264010B5FEF77FFF10BD70B5040003200D001600FEF71DFC054B984205D0320029002000FEF7BBFE00E051
:402AC000014870BD0101880003004A00F8B50B001100C21AD417070010196040884220D3124E134D48087459A405A40D9F4207D9101800F029FB201AC343DB17184008E0C6
:402B0000C318D81B00F020FB0A4B0019984200D90948735982059B0A9B02920D1343735101E000242000201AF8BDC046000026403C050000FE030000FF030000802110B5D2
:402B4000024B09021A68FFF7C1FF10BD9001000810B500F083F80220FFF7C8FD094C0A4923681868FEF79AFA23681B6800229A5E002A05DB1F231A401E3B9340034A13605C
:402B800010BDC046F01E0008FD26001000E100E00420704710B5FFF7F4FC10BD10B5FFF7F4FC10BD10B50021FFF708FB10BD0000F8B58023FA250C0001271B0218430D4E4B
:402BC0000004F061AD00326C0A4B01203A4205D1002D0CD0013DFFF73FFCF4E7002D06D01A6C10431864DB6A0020238000E00248F8BDC04600003C400400160070B5FA24FC
:402C000001260D4B000418400C4D0143E961A4002B6C0A4A0120334205D1002C0AD0013CFFF71AFCF4E7002C04D0136C18431064002000E0024870BD0000FF7F00003C40EE
:402C40000400160010200349034A8B5803438B507047C04600003C4070F00100F0B5154B9DB001A90A00180070C870C270C870C270C870C20AAC1A0020002432E0CAE0C0E7
:402C8000E0CAE0C0E0CAE0C013AD2A004833C1CBC1C2C1CBC1C2C1CBC1C20748FFF77CF921000648FFF778F929000548FFF774F91DB0F0BD284E001000013240800132401F
:402CC00000023240F0B585B00090002800D159E1C54F7B689B0301D5FFF78EFBC34CC44DC44BEA58002A06D0013C002C03D00120FFF7B2FBF3E70122BF4C2959114205D0B6
:402D0000BE49BB484158114200D03DE1EB58B84E002B00D038E1FFF7A1FFB94AB94BF2508022009BD2021B781343B74AB350B74AB74BF250B74B5A6801231A4200D025E116
:402D4000B54A116F08220A4008D1B44BB44918681300884202D900F0F7F9431E2A68002B03D0B0485B03034300E0AF4B13432B607B699F499C4E01275B000DD539000320B4
:402D8000FFF71CFA73699B0F3B420AD08022B369D2051343B36104E00320A44A8B5803438B502B5940200193019AA14BA14E13432B51FFF751FB0123AA598D4F1A4208D1F8
:402DC000BB514020FFF748FB03234020BB51FFF743FBFA27019A984B984E1A4016430192FF002E51964A974BD3581022134207D1002F00D1CCE00120013FFFF72DFBF1E7D0
:402E0000002F00D1C4E008218F4A0120AB580B43AB50FFF7BDF9002802D18C4E019B1E438B4B1E4001231E432E511E00894C734BEB58334207D1002C00D1A9E00120013CA4
:402E4000FFF70AFBF3E7002C00D1A1E00B27C02181484901FFF7D2FE041E05D102AB991D7D48FFF7A5FE0400013F002F00D136E1002C26D1C02202AB9E1D338852019342AF
:402E8000E5D131007548FFF793FE041E19D180233288DB001A4200D081E00B27019380216E48C900FFF7AAFE041E04D131006B48FFF77EFE0400013F002F00D10FE1002CE5
:402EC00068D0B0256D056B78002B44D06B78212B41D0634FEB5B002B3DD0002C00D000E102AB9E1D31005F48FFF762FE041E00D0F7E0C021E85B3488084060398C434008AD
:402F0000594920430140F020EA5BC000EB5BD201024011439B05554A9B0F1140DB02194350483180FFF76AFE041E00D0D9E031004F48FFF73DFE041E00D0D2E0C022EB5BFD
:402F400031889B069B0F9B019143194348483180FFF754FE0400002C00D0C2E0009B454859781D78444B49001943FFF747FE041E04D142494248FFF741FE04006801FFF7B5
:402F80006BFAAEE03F4CACE03F4CAAE03F4CA8E03F4CA6E03388019A934200D07FE731003C48FFF705FE041E00D08AE732883F2310009843009B38499F78DB78012F0ED1C0
:402FC0000222012B04D89FB2D21B92B2019201E017000194702210433080304A69E0002B5ED0019401275EE000002640F17E0E0000003C406CF00100A0F00100B4F0010065
:4030000006000001A4F00100A8F0010001000100ACF00100FC003C4000F03D40C800000800093D00041A0080040A0080C4F0010030000300B0F00100EFFFFEFF20000200FF
:40304000000032401040000068F0010028000200FFFFFBFFF07E0E00021E0000031E000016180000071E00007FF5FFFFFFE7FFFF061E0000081E00000110000037680000B3
:403080000F1E000001001600030016000200160004001600091E0000C00000080048E80101201F0001907F2082436F38024332800D4ADA400A6031880C4839433180FFF783
:4030C0009DFD009B0400DB78DF1B03231F40019B9B001F43064BBFB23780EF50F1E6054CEFE6200005B0F0BD0024F400091E000064F0010004001600014B18687047C046BE
:40310000C000000810B500242000FEF743FA032804D00134052CF7D1002000E0012010BDA023034ADB00D058012318407047C0460000264002B4714649084900095C49000A
:403140008E4402BC7047C046002243088B4274D303098B425FD3030A8B4244D3030B8B4228D3030C8B420DD3FF22090212BA030C8B4202D31212090265D0030B8B4219D31F
:4031800000E0090AC30B8B4201D3CB03C01A5241830B8B4201D38B03C01A5241430B8B4201D34B03C01A5241030B8B4201D30B03C01A5241C30A8B4201D3CB02C01A5241CC
:4031C000830A8B4201D38B02C01A5241430A8B4201D34B02C01A5241030A8B4201D30B02C01A5241CDD2C3098B4201D3CB01C01A524183098B4201D38B01C01A5241430920
:403200008B4201D34B01C01A524103098B4201D30B01C01A5241C3088B4201D3CB00C01A524183088B4201D38B00C01A524143088B4201D34B00C01A5241411A00D201462E
:40324000524110467047FFE701B5002000F0F0F802BDC0460029F7D076E7704703460B437FD4002243088B4274D303098B425FD3030A8B4244D3030B8B4228D3030C8B4238
:403280000DD3FF22090212BA030C8B4202D31212090265D0030B8B4219D300E0090AC30B8B4201D3CB03C01A5241830B8B4201D38B03C01A5241430B8B4201D34B03C01A7C
:4032C0005241030B8B4201D30B03C01A5241C30A8B4201D3CB02C01A5241830A8B4201D38B02C01A5241430A8B4201D34B02C01A5241030A8B4201D30B02C01A5241CDD2D2
:40330000C3098B4201D3CB01C01A524183098B4201D38B01C01A524143098B4201D34B01C01A524103098B4201D30B01C01A5241C3088B4201D3CB00C01A524183088B42F9
:4033400001D38B00C01A524143088B4201D34B00C01A5241411A00D201465241104670475DE0CA0F00D04942031000D34042534000229C4603098B422DD3030A8B4212D3C1
:40338000FC22890112BA030A8B420CD3890192118B4208D3890192118B4204D389013AD0921100E08909C3098B4201D3CB01C01A524183098B4201D38B01C01A5241430979
:4033C0008B4201D34B01C01A524103098B4201D30B01C01A5241C3088B4201D3CB00C01A524183088B4201D38B00C01A5241D9D243088B4201D34B00C01A5241411A00D209
:403400000146634652415B10104601D34042002B00D54942704763465B1000D3404201B5002000F005F802BD0029F8D016E770477047C046002B11D1002A0FD1002900D152
:40344000002802D00021C943081C07B4024802A14018029003BDC046D9FFFFFF03B4684601B5029800F050F8019B9E4602B00CBC7047C046F0B54F464646C0B41604360C99
:403480009946330005042C0C070C150C63437E436F4365431C0CAD1964199C46A64203D980235B02984647446346250CEF191D044B464A4343432D0C240464199918C91932
:4034C00020000CBC90469946F0BDC04670B500220C4B04000D0001F05DFA002804D12000290001F0B5F970BD064B00222000290000F05AFE01F0ACF980231B069C4660448F
:40350000F1E7C0460000E041F0B54D46564644465F46F0B4924683B004000D0099468B422FD82CD04946504601F05CFA29000600200001F057FA331A9846203B9B4600D5E1
:4035400074E053465A4693401F005346424693401E00AF4229D826D05B46A41BBD41002B00DA79E0002200230092019301235A4693400193012342469340009319E08242B1
:40358000D0D900220023009201930C9B002B01D01C605D600098019903B03CBC90469946A246AB46F0BDA342D6D900220023009201934346002BE8D0FB0772081A43464633
:4035C0007B080EE0AB4201D1A2420CD8A41A9D41012024196D410021013E24184D41002E06D0AB42EED9013E24196D41002EF8D15B460098019900196941002B22DB2B003F
:403600005A46D3402A004446E2401C005B461500002B2CDB26009E40330026004746BE403200801A994100900191AEE7424620239B1A5246DA40414613004A468A4017007B
:403640001F4382E7424620239B1A2A0046469A402300F3401343D5E74246202300219B1A0022009101920122DA40019282E74246202326009B1ADE402F00B4469740664677
:403680003B003343C9E7C046F0B556464D4644465F46F0B41D000E034C00CB0F87B0070092468146360B640D98466AD06D4B9C4235D08022430F12041343F6001E43C300EC
:4036C0009946694B00279C460023644402932B0368001B0BED0F51469B46400D009500D178E0604B98426CD05B46DA004B0F802109040B4313439B465346D9005A4B9C46D1
:40370000002360444246201A6A40924601901F430F2F00D9B0E05548BF00C0598746374300D088E0002399460233082700260293CDE74346B34649460093029B009A924668
:40374000022B00D0BFE1002153460122002689461A40444B002136030C0D2405360B2643434C1B0526401E437600D207760816434846310007B03CBC90469946A246AB4613
:40378000F0BD330003434FD0002E00D1BCE1300001F00AF903000B3B1C2B00DDADE11D220100D31A08393A008F408E40DA40B9461643304B00279C460023604444420293EC
:4037C00085E753465A4613432CD1002300219B46023397E70B4320D05B46002B00D19EE1584601F0E1F803000B3B1C2B00DD8FE102005946083A91408B461D21CB1A51461B
:40380000D9400B0059460B4351469B469140194B9C4660444042002374E7002300219B4601336FE703236DE70023994601330427002602934BE703230C27029347E701228E
:40384000D51A382D00DCB0E153461A4000210023002689467EE700238026994600223603004B77E7FF07000001FCFFFF54590010FFFF0F80F30300005E4500D972E100D169
:403880006DE1019B4D46013B01930023340002935B461E020B0E1E430B020393330C994633041B0C494620000093FFF74DFC009B370043430600494620009846FFF7CAFC4D
:4038C0002C0C09040C43A04509D9E419731EA74200D95CE1A04500D859E1023EE4194346E41A49462000FFF72FFC0300009A80465343494620009B46FFF7ACFC2A040904F3
:40390000120C0A4393450DD94346D219013B974200D93AE1934500D837E102235B429C46D219E0445B46D21A4346360433439B460399180C0B0C1D00059309045B46090C70
:403940000C001B041B0C4443049159436B4368431B190D0CEB189C4203D980246402A44660441C0C09041B04090C20185D18824200D2DEE000D1D7E0161A029B9C465D1B29
:40398000AC459B415B42F61AB74200D106E149463000FFF7D9FB009B04004343494630009846FFF757FC2E0C09040E43B04509D9F619631EB74200D9F3E0B04500D8F0E007
:4039C000023CF6194346F31A494618000293FFF7BBFB009B06004343494602989846FFF739FC2D0409042D0C0D43A84509D9ED19731EAF4200D9D6E0A84500D8D3E0023E3E
:403A0000ED192404210043463143049E059A3000ED1A0B040C0C1B0C58436643534354439A19030C9B189E4203D980225202944664441A0C00041B04000C14191B18A542BE
:403A400050D34DD001231943964A019B94466344002B00DCF3E64A0709D00F220A40042A05D00A1D8A42894149428B4411005A46D20108D55A468C4B1A4093468022D2006B
:403A80009446019B6344894A934200DD5BE65A46C908500708435602514601225B058146360B5B0D0A4055E680231B031E4211D05A461A420ED15E461E433603360B2A0023
:403AC00089467B4B46E6032B00D1E1E0012BBBD11A40BBE61E433603360B4246744B39E6002BB1D07D194A1EAF4252D91100A542A8D1039A9A42A5D1A6E703003E00283BFA
:403B00009E400023994654E600F04EFF203041E603005246283B9A400021934677E6504600F042FF20305EE6029B0026AB4200D323E7039E0299B44661448846B045B6410B
:403B40005B467642F619B218013B0291974213D290424FD800D18EE0161A9B460DE7894500D28EE674084B46F60735005B081D434B46DB0702938BE69742EDD10399029CE9
:403B8000A142E5D93E1A9B46F7E69846CAE61E00A5E6AC423ED874D0110053E70121494252E71C000EE71E002BE71F2D3CDC20230A0058465B1B9840EA4099400243481E12
:403BC00081415E461143EE404B0709D00F230B40042B05D00B00191D99429B415B42F61833023CD55346012200211A40002601238946AFE502235B429C46039CE344A44610
:403C0000029B63449846A045B6417642F6190293B218B1E603988A1E41008142B6417642F619AD19039161E71F225242D31A5A46DA401300202D29D040225846551BA840F5
:403C40000143481E814107200B4318400026002809D00F2200261A401900042ABBD10B0070077602360BDB0803439946012253461A4000236EE502998D42BBD89B4600268D
:403C80007BE603989842C5D3110032E70020D7E780265B4636031E433603360B009A8946034B57E5FF030000FFFFFFFEFE070000FF070000F0B55F4656464D464446F0B491
:403CC0000D0399464E002B0B87B00700924680469B46760DCC0F002E69D06D4B9E4235D05B468022DD001204430F13432B439B46C3009846674B00279C4600236644019348
:403D00004A4615035000D20F53462D0B400D914600D176E05E4A90426CD080225B0F120413435C4AED0094461D4353460022DB00604449463618701C6140029017430F2F25
:403D400000D9AFE05448BF00C759BF465B461F4300D088E000239B469846023308270193CEE74946022A6AD0032A00D109E2012A00D0BBE111400022002300259046CCB20D
:403D800000212D030A0D12052D0B1543434A1B0515401D436D00E4076D0825434046290007B03CBC90469946A246AB46F0BD034352D05B46002B00D18AE1584600F0F4FDD5
:403DC00003000B3B1C2B00DD7BE11D22D31A3A0001005D46DA4008398D4013008F402B439B46B8462E4B00279C46002360444642019385E752462A432CD10025002302225A
:403E000097E752462A4321D0002D00D154E1280000F0CAFD03000B3B1C2B00DD46E11D21CB1A51460200D9405346083A954093400D431B4A944660444042002279E70124B4
:403E400000220C40124B0025904699E70025002301226EE703226CE700239B4698460133042701934CE703230C27019348E700238025984600242D03054B81E75D464346C2
:403E8000019A6FE75D4643462100019A6AE7C046FF07000001FCFFFF94590010FFFF0F80F30300004246120C91461A0C9446424617044A461B041B0C5A43604690464A46B2
:403EC00042431000039262461C003F0C7A437C4342440192220C9246019A5244904506D98246802040028046C24450460390100C049048462404240C1204121905922A0CC6
:403F00002D042D0C68432C00824648467C4350438146200C8046574357444744BA4503D9802040028046C144380C3F04B84648442404240C01900498A04440440490584667
:403F4000000C814658460404200C8246070048465F434C464343604660436446834650464443380C8446E4186444A34203D980235B029C46E34448463F04230C3F0C2404BD
:403F8000E419574668436F4384464D46504655434243380C814662444A445B44944503D9802040028446654403983F04834604983F0C8446E344C34580414042824610046C
:403FC00084460198674484466744A344BC46A345A4419946D44464428742BF41D4458041E144A04699459B417F424042C8440743120CBA18A045A4415F423B006442234348
:40400000D71843467D19DB0D6D021D435B465A02059B1A43531E9A415B46DB0D1A4343465B021343EA0107D501225C0813402343EA07029E13436D08574AB218002A4BDD33
:40404000580709D00F201840042805D0181D98429B415B42ED180300E80104D54F4A15408022D200B2184E48824200DDE7E60124DB08680718436D02530580462D0B5B0DFF
:404080000C407DE6802259461203114208D0154206D115432D0398462D0B4C46414B6FE65D4615432D032D0B3E4B69E603005546283B9D400023BCE6504600F075FC20306C
:4040C000A8E60300283B9F400023BB46984689E600F06AFC203073E60124A61A382E07DD00220C4000230025904649E6029EA3E71F2E20DC20222C001800921BF0409440E9
:4041000093400443581E83411C43F540630709D00F232340042B05D023001C1D9C4292415242AD182B021FD5012400220C4001230025904624E61F202C004042821AD440DB
:40414000202E1CD04022961BB5402B43581E83410720234318400025002809D00F2200251A401C00042AD8D1230068076D022D0B0124DB08034398460C40002300E60025C8
:40418000E3E780220124120315432D0398462D0B0C40044BF4E5C046FF030000FFFFFFFEFE070000FF070000F0B557464E464546E0B40E001100F20F9246C500420F18031B
:4041C00037037400400A4E0F7F0A3043CF4E17435A00640D520DDB0FC900B24200D1E5E001267340A61AB446534500D1AFE0002E00DC0DE1002A3AD103000B4300D0E4E0F2
:404200006B0709D00F232B40042B05D02B1DAB42AD416D427F191D003B0200D488E0BB4B01349C4200D110E13A00B94B51461A4001235007ED08520264050543120B640D85
:404240000B400021280012030D0D120B64052D0515436208AF4CDB072C401443640064081C4321001CBC90469946A246F0BDA74B9C42C5D080231B0418436346382B00DD84
:40428000FDE01F2B00DD30E1624620239B1A02009A40664690460A009940F24046464B1E99413243114363460200DA40691A8D429B410D00BA1A5B42D71A3B0235D57A0219
:4042C000530A98464346002B00D1C4E0404600F06BFB0300083B1F2B00DDC5E020222900D21A4746D1409F400A009D403A439C4200DDC0E01C1B631C1F2B00DDE4E02021F7
:4043000014002800C91AD8408C408D400443DA40681E854117002543002471E7424663461A4300D14CE2674645466B0700D069E7012351467807ED08FA080B40054373492E
:404340008C4238D012036405120B640D79E7002E00DC9AE0002A47D06C4A944200D14FE78022120410436246382A00DC08E10143481E81410022C9B24919D219A942BF4188
:404380000D007F42BF183A0200D442E15F4A0134944200D14EE101205D4A69083A4028400843D507054357089A4629E706000E4300D017E714E72900114300D1F9E18021AF
:4043C00009030A431203120B3BE701235B429846C4446346002B72D1691A8D429B413F1A5B42FF1A0D0068E702000A4300D107E7012252429046C4446246002A00D0E6E0AE
:404400006918A942B6413F187642F7190D00BAE7002E00D080E0621C5205520D012A00DCF9E06A1A91464D45B6413A1A7642921B9046120200D499E04D1BA9428941C71B07
:4044400049427A1A90469A463CE752460123002513400022F5E6280000F0A6FA20300300083B1F2B00DC39E72A002838824000259C4200DC3EE7264FE41A1740C0E601437B
:40448000481E81410022C9B210E7002E00D0F1E0621C94465205520D012A00DCA0E01B4A944500D1C5E06918A94292413F185242D2194908D5070D4357086446A0E6134BA9
:4044C0009C4200D0D9E69BE611001F3CE1400C00202B00D180E04021CB1A9A4015436A1E95410027254300241FE763460200203BDA406346202B71D0402366469B1B984038
:404500000143481E814111430022CFE6FF070000FFFF7FFFFFFF0F80002C48D0CA4CA24200D1A2E07442A1468024240427434C46382C00DDDBE01F2C00DD44E14E462024BE
:40454000A41B3E00A640A246B0464C462E00E640B4464646644626435446A5406C1EA54134002C434D46EF400D1B28E04A4643464D461A4300D0A5E6002300240025DEE6E3
:404580001F2A5ADC66462022921B060096409146B04662460E00D640424616434A4691404A1E9141020060463143C240E4E63C002C435AD0F443A146002C52D14D1BA94273
:4045C0008941C71B49427F1A14009A4675E69E4A944200D0C7E613E600227FE700208FE7002C00D0C8E03B002B4300D10FE103000B4300D104E66918A9429B413F185B42F4
:40460000DF193B0200D41AE1904B0D001F406446F6E59A4689E63A002A43002C5CD1002A75D102000A4300D1CAE007000D009A46E6E564460022002581E662460600203A02
:40464000D6406246B046202A00D1B7E040226646921B904001434246481E8141114300228AE6794CA24200D061E707000D0014009A46C5E5002C41D13C002C4378D0F44394
:40468000A146002C20D0704CA24271D04C46382C00DDB2E01F2C00DDBCE02026341BA2463C005646B4404E46A0462C00F440A446444666463443A4465446A54064466E1E94
:4046C000B54125434C46E7406D188D4289413F184942CF19140056E6002A2FD102000A4300D184E007000D009A46574C88E53D436F1EBD41ECB200270D1B60E7524CA242F8
:4047000036D0744280263604A1463743BEE702000A4300D174E56A1A90464545B6413A1A7642921B9446120200D4F7E54D1BA9428941C71B49427F1A9A4661E502000A4394
:404740003AD0ED087C072C438025FA082D032A4208D0C7082F4205D145072C003A009A46C9080C43670FD200E5001743364C47E507000D00140043E53A002A4343D0020024
:404780000A4319D0ED087C072C438025FA082D032A4207D0C6082E4204D147073C003200C9080C43D700620FE50017439A46264C26E50022002544E5234C21E5002049E7BA
:4047C00000230025BBE54C463E00203CE6404C46B446202C31D040244E46A61BB7403D436C1EA54164462C4300270D1BE7E6802200231203144C0025A1E53D436F1EBD41E1
:404800000027EDB260E707000D000F4CF8E407000D00F5E44E463C00203EF440A0464C46202C0ED040244E46A41BA7403D436F1EBD4144460027254346E70027CFE70D0056
:4048400073E50027F2E7C046FF070000FFFF7FFF0B0330B5134D1A0B4B005B0DC90F0024AB4211DD104CA34210DC8024640322430E4CE41A1F2C0CDD0D48C31ADA401300CE
:404880005C42002900D11C00200030BD094BCC18FAE7E040084CA44663449A4013000343EEE7C046FE0300001D0400003304000013040000FFFFFF7FEDFBFFFF70B5051EF1
:4048C00028D000F071F8154B154A1B1AD21A1F2A16DD2C00134A0025D21A94405A052403240B520D002124030B0D240B1B0523430D4C1205234013435B002800590870BD7A
:404900000B212C00081AC440954024035A05240B520DE7E700220024E4E7C0461E0400003304000013040000FFFF0F808446101C62468C46191C634600E0C0461FB500F036
:4049400001F9002801D40021C8421FBD10B500F055F84042013010BD10B500F0F3F8002801DB002010BD012010BDC04610B500F0E9F8002801DD002010BD012010BDC046B5
:4049800010B500F07BF8002801DC002010BD012010BDC04610B500F071F8002801DA002010BD012010BDC0461C2101231B04984201D3000C10391B0A984201D3000A083946
:4049C0001B09984201D30009043902A2105C40187047C0460403020201010101000000000000000010B5002903D1FFF7DDFF203002E0081CFFF7D8FF10BDC046F0B55F4697
:404A000056464D464446F0B41F035C00DB0F9A46194B0E034D00C90F8046360B6D0D8B4691463F0B640D9D4219D0134B9C421BD00123A54206D018003CBC90469946A246D6
:404A4000AB46F0BDBE42F6D1C845F4D1D34510D0002DF0D1304303005A1E9341EBE7310001230143E7D1E0E73A430123002AE2D1DEE70023DFE7C046FF070000F0B55F46EB
:404A8000444656464D46F0B41F033C0B2C4F0E034D00A3465C008446360B6D0DC90F9046640DDB0FBD422BD0254FBC422ED0002D0ED130430700814678427841002C17D146
:404AC0005F463A4314D14B460020002B0AD006E0002C02D15846024301D099421AD00123484218433CBC90469946A246AB46F0BD0028F2D058425841012240421043F1E772
:404B000037000743D0D002204042EBE75F461743CDD0F8E7A542E2DC05DB5E45DFD808D000205E45DED248424841012340421843D8E7C445D3D80020C445F4D3D2E7C04603
:404B4000FF070000F0B55F464D4644465646F0B41C03240BA4462F4C0F034D005E00C90F80463F0B6D0D8B469146760DDB0FA54220D0284CA64222D0002D12D1384344426B
:404B80004441002E20D0002C0DD05C42634101245B421C4320003CBC90469946A246AB46F0BD002E17D05B4519D05B465C4201231C43EFE7390002240143EBD1D9E7614697
:404BC00002241143E6D1D7E761460A43DBD100240028DFD0E9E761460A43E4D1E5E7B54203DD01225C421443D4E7B542CDDB6745DBD809D000246745CCD259464C42614128
:404C0000012449420C43C5E7C845CED80024C845F3D3BFE7FF07000030B50024A24208D0035D651C0C5DA34201D0181B02E02C00F4E7002030BD002310B59A4203D0CC5CC6
:404C4000C4540133F9E710BD03008218934202D019700133FAE77047F8B5C046F8BC08BC9E467047F8B5C046F8BC08BC9E46704701B40248844601BC604700BF45030008DA
:404C8000FFFFFFFF000000000000000000000000000000000000000000000000000000000200000000000000000000000000000000000000000000000000000000000000F6
:404CC00000000000030000000100000000005A000300000003000000010000000100000000000000050360000400000001000000000000000100000006046000080000006E
:404D0000101E0008510C00100800000001000000020000000200000008080003090000000100000000000000030000000909000308000000301E0008310C00100A000000D9
:404D40000100000004000000040000000A0A000C0B0000000100000000000000050000000B0B000C10000000501E0008410C00100A002E000300000003001800030000009B
:404D8000192001020402000015000401030009040800000054010000190102000000000003000000000000000000000068000000000000000000000000000000121200007F
:404DC00000000000000000000000000000000000000000BA0000000000000000000000000000000000001D1D000000000D00000008000000000200000000000000000000A8
:404E000000000000000000000000000000000000000000000B0000000000000064000000000000002002000000000000000000000000000066666666000000000000FFFF4B
:404E4000000000001C1C1C1C1C1C1C1C00000000000000000000000066E6EE66000000000000FFFF000000001C1A1A1A1A1A000000000000000000000000000066E66666FE
:404E8000000000000000FFFF000000001A1A001C000000007C01000031010000090901120C00FF0380ABCDABCD80409C1B04041BFFFFFFFF0000000004100800070704008E
:404EC000F216FBE0FBE01F60427EF56D720096BE2090000010502604060037D7F401FA00960064004B0032001E00140003040506020D1100D1E2001035E2001087E800100C
:404F000085E3001037E4001033E800104BE800100DE90010B1E4001019E50010F5E6001023E700105BE9001021E80010EFE80010EFE80010EFE80010C9E7001071E7001058
:404F4000B5E700107D1E0110891E0110552E01103D2F0110492F011081E30010CFE20010CBE8001035E400106FE4001043E8001065E8001059E9001015E5001071E50010A9
:404F80000FE7001049E70010C7E900102BE8001059E9001059E9001059E9001019E8001059E9001059E9001059E9001059E9001059E9001059E9001059E90010E7FE00108E
:404FC000EFFE0010EBFE0010E5FE0010C3FE0010BFFE0010DDFE0010DBFE0010B7FE0010BBFE0010F3FE0010DFFE0010D9FE0010F7FE0010F7FE0010B5FE0010E3FE001035
:40500000D5150110891901104D170110F914011009080110BD0401108D0F0110D10A0110290001108D000110E11A011019130110690A01103D040110190F011059640010A5
:40504000C9130110811B01100D1F0110592001102D210110491D0110DD1B0110951E0110BD1C0110E71C0110F71C0110F91C0110FD1C0110EFE80010E91C0110F31C01109D
:40508000F11C0110853201103D2C0110F1310110A13101103D320110552F0110612E0110F92E0110BD2F011001C700105F2C0110552C01105B2C0110592C01105D2C0110C2
:4050C000572C0110EFE80010EFE80010EFE80010C9B500104D4501102F4501102F4501102F45011065450110618401102F450110518401106984011059840110E74901105E
:40510000DF49011049490110414901103F450110274501101D4501104345011039490110694901103745011061490110C14901102F45011071490110594901105149011073
:405140002F4501106D450110754501107D45011033450110334501104D4501102F4501102F4501102F45011065450110618401102F450110518401106984011059840110FD
:40518000E7490110DF49011049490110414901103F450110274501101D4501104345011039490110694901103745011061490110C14901102F45011071490110594901105D
:4051C000514901102F4501106D450110754501107D4501103345011033450110896D01107D6D0110956D01103345011033450110296A0110656A0110356A0110596A0110DD
:405200004D6A0110416A0110716A01107D6A0110716D0110D56F0110D96F0110E56F0110BD6F0110C96F011033450110334501103345011033450110334501103345011048
:40524000334501103345011033450110334501103345011033450110334501103345011033450110334501103345011033450110334501103345011033450110334501109E
:40528000334501103345011033450110896A0110C7600110755F0110755F0110755F0110F960011089600110755F01106D60011039610110836001101361011009610110A2
:4052C000F75E0110755F0110755F0110755F01107B5E011057600110A15E0110D9600110FF5F01100F600110895F0110755F01104F610110C55F0110B75F0110755F0110BE
:405300004360011087610110755F0110755F0110755F0110196D01100D6D0110256D01100D600110A75F011075690110B169011081690110A5690110996901108D69011069
:40534000BD690110C9690110016D0110116F01101D6F0110296F0110F96E0110056F0110755F0110755F0110755F0110755F0110755F0110755F0110755F0110755F011038
:40538000755F0110755F0110755F0110755F0110755F0110755F0110755F0110755F0110755F0110755F0110755F0110755F0110755F0110755F0110755F0110755F01109D
:4053C000755F0110D5690110F76301102563011025630110256301103B640110A163011025630110E9630110E963011093630110516401103F640110A16201109D62011086
:4054000081630110356201102762011027620110396201101B6401105563011069630110296301102563011085640110416301102D6301102563011085630110A16401108B
:405440009D6401102563011025630110456C0110396C0110516C0110C964011023620110BD680110C5680110D1680110DD680110C5680110C5680110E9680110F56801106E
:405480002D6C01101D6E0110296E0110356E0110056E0110116E0110256301102563011025630110256301102563011025630110256301102563011025630110256301103C
:4054C000256301102563011025630110256301102563011025630110256301102563011025630110256301102563011025630110256301102563011025630110016901103A
:4055000008000000060F0020200107021900000007070E05020220001C1202000103000E0306000400402707000007070102000203070304000000000000000000000000C5
:4055400000000000000000000000000000080000C7600110755F0110755F0110755F0110F960011089600110755F01106D6001103961011083600110136101100961011076
:40558000F75E0110755F0110755F0110755F01107B5E011057600110A15E0110D9600110FF5F01100F600110895F0110755F01104F610110C55F0110B75F0110755F0110FB
:4055C0004360011087610110755F0110755F0110755F0110F76301102563011025630110256301103B640110A163011025630110E9630110E9630110936301105164011034
:405600003F640110A16201109D62011081630110356201102762011027620110396201101B6401105563011069630110296301102563011085640110416301102D63011059
:405640002563011085630110A16401109D640110256301102563011008000000060F0020200107021900000007070E05020220001C1202000103000E032000800000C000D4
:4056800000000004000000A822000000000000040000F7FFFF7F000000300000000000000000000000000000000000000000000000000000000000000000000055670110A7
:4056C0000D69011075680110B56701101B6901109D680110856701102969011081680110B36701102D690110996801109D6701101B69011091680110876701101B69011097
:4057000089680110CB67011039690110A5680110D167011049690110AD680110755F01102563011033450110755F01102563011033450110755F011025630110334501100C
:40574000755F01102563011033450110755F01102563011033450110755F01102563011033450110755F01102563011033450110755F01102563011033450110DF670110AF
:4057800061690110B5680110755F01102563011033450110755F01102563011033450110755F01102563011033450110755F01102563011033450110755F01102563011046
:4057C00033450110996A0110756C01101D6C0110976A0110696C0110156C0110BF6A0110C16C0110256C0110956A01105D6C01100D6C0110755F0110256301103345011061
:40580000755F01102563011033450110755F01102563011033450110755F01102563011033450110755F01102563011033450110C16D01107D6E011000000000CF6D0110C4
:40584000916E0110C5300110DD6D0110BB6E0110F5300110A16D0110416E0110492D0110AF6D01105F6E0110652D0110303030314238303030313032303330343035303643
:405880003037303830393041304230433044304530463130313131323133313431353136313731383139314131423143314431453146323032313232323332343235323686
:4058C0003237323832393241324232433244324532463330333133323333333433353336333733383339334133423343334433454142000026002B00300036003C00430097
:405900004B0055005F006A00770086009600A800BD00D400EE000B012B014F017801A601DA01130254029D02EE024A03B1032404A5043605D9058F065C0742084409650ADE
:40594000AA0B160DAF0E79107C12BD1445171C1A4B1DDE2078380010463700104C3800103C3700104C380010563800104C3800103C3700104637001046370010563800104D
:405980003C370010323700103237001032370010A83A0010A43E0010643D0010643D0010623D00107C3E00107C3E00106E3E0010623D00107C3E00106E3E00107C3E0010B5
:4059C000623D0010843E0010843E0010843E00108440001000000000F8B5074600256846058078683C1D2D492E46002807D06268002A06D0800702D1207A800701D00D46D1
:405A000049E0FDF7A5F8FDF719F8FDF7C1F800F02BF900283DD1788C0006C00F00F0A4F905460004000C34D11D49084600F0E4FE0004000C2DD12289A17A2068194C00287B
:405A400006D02060A280E68021810021FFF7FCF8684601F05BFC054613486B460078E2888000001DC1B21B88A088D418A04206D3C01A801A80B201F0DBF9044600E00B4CFE
:405A800000F06EFD002C04D100F07EFB08490120087000F0F7F82846F8BD0000010016003D5C0010001F00083C1F0008FFFF00009401000810B503480078012801D101F0DC
:405AC00053F810BD9401000810B5FCF7D1FF032801D100F037FE00F0FFF901F099FC00F0BDFE02490020087010BD00009401000800487047001F000870B5044600208A079B
:405B000003D08A07920F891A091D084B89B2DA889E885518B54206D81D68AA182260DA885118D98070BD024870BD0000001F000803001600004870470C1F000810B501F086
:405B400073FB10BD10B501F079FB10BD10B501F07DFB10BD0649002808D006498180052101700021417002218170002108467047010016009503000010B5FFF79BFF10BDE5
:405B800010B501F06BFB10BD10B501F079FB10BD38B50546002069460880002D09D0284601F07AFC0446684601F0A4FB002C02D015E00C4838BD01F05BFB2846FFF70CFF21
:405BC00004000CD1284601F0EFFB040007D1FCF74FFF032803D100F07BFD00F0C9FD204638BD00000100160038B50446002069460880002C08D06189090A05D1617A102956
:405C000002D8E179102901D90A4838BDA0816946204601F00DFC05466946A08909884018A081002D04D1102221460348FFF703F8284638BD010016000C1F0008704700003E
:405C400010B5084900200978002909D005F0AEFE044605F071FD201A80B281004018C00810BD00009C01000810B5FCF7F7FF442202490348FEF7DFFF002010BD984E00103E
:405C80001C1F000810B5FCF7C3FE10BD10B519461046044C01F002FA002800D00024204610BD0000FFFF000010B501F023FA10BD10B501F009FA10BD010010B5044806D049
:405CC000044A01201070002007F0C6FD002010BDFFFF00009C01000870B50024034D20462C7007F0E7FD2C70204670BD9C01000801480078704700009C01000870B5591C4A
:405D000089B24C080B4D64000021451906E028685054000A5618891C707089B2A142F6D3D80705D0D0182038D15CC47FD454C17770BD000000103C4030B50A4C00210019A9
:405D40005B1E07E054186478555C240225430560891C89B29942F5DB994201D1515C016030BD000000103C40F8B50746FF2000F0F3F9164EFF207070154816490068401844
:405D8000406B0024410F301D0125022901D0457000E0447005700D48801C4470384612F0C3FB070010D112F001FC3070012000F0D3F912F005FC68460470447012F06AFF0C
:405DC0006846457012F066FF3846F8BD9D0100089801000840F03D40F0B50021094D5B1E08E0441924685718260A7E705454001D891C89B29942F4DB994202D14019006801
:405E00005054F0BD00103C4070B500210A4E5B1E09E0541864782502545C2C4385192C60001D891C89B29942F3DB994202D1515C8019016070BD000000103C40F0B50599D6
:405E4000091FCFB200217E1E0AE054186478555C24022543144C04192560001D891C89B2B142F2DBFC0710D01C78515C24020E4A0C4381180C609C785D782102001D294301
:405E800084182160001DD9780BE059781A7809021143054A84182160D978001D9B780902194380180160F0BD00103C4038B509480024447012F084FB69460C704C706846F8
:405EC00012F0E8FE012069464870684612F0E2FE002038BD9F01000810B501F0C9F90A480078012805D1FDF70DF9012809D012F0B5FF05490020891E0870062000F02CF92A
:405F000010BD12F095FFF4E79F01000810B50B46062816D006DC01280FD0032801D1FFF7C5FF10BD0B2811D0112813D01228F8D11146184612F09EFA10BD0020FFF714FF6B
:405F400010BD1146184612F023FE10BD04480078107010BD1146184612F09CFA10BD0000A1010008F8B5184D184E28688019846AE00719D001F0B8F90127012811D1002086
:405F800001F084FA052000F0E7F81149FF204870881C4078002804D128688019416B39434163286880198762E0050CD50848801C0078052802D1042000F0CEF8FF20296839
:405FC000013089198862F8BD9801000840F03D409D0100080549002805D005494A78427009780170002108467047000001001600A101000838B504000C4816D06178012927
:4060000013D801F035F9607812F0FAFD207000280AD169460870684600F090F869460878012801D104202070002038BD0100160010B5094900280CD00278082A09D242783F
:40604000042A06D205494A700078087012F0B8FA0021084610BD000001001600A101000810B504460448032C05D801F001F9204612F0D2FD002010BDFFFF160010B504001E
:40608000054808D06178012905D801F0F1F8204612F000FE002010BD0100160010B5FDF731F80122084992040028084B086804D0C018016A1143016210BDC018016A91430E
:4060C000016212F0D5F910BD9801000880F03D400949087805280ED14A780848084900684018002A03D1416B490849004163C16A01221143C16270479F0100089801000864
:4061000040F03D4001480078704700009F01000802484078022800D0012070479D010008012807D0032807D0042803D0052803D0FF207047012070470220704710B50400C7
:4061400002D012F0EBF9207010BD000001494870704700009F01000810B50446FCF76EFC062C01D9FF2C01D102480470FCF750FC10BD00009F010008014948707047000009
:406180009D010008002070471CB5002469460C70022001902346054A054800F01DFA04480068401C00D1034C20461CBDFD610010A4010008FFFF00003EB50F4A01460D4813
:4061C00000230124126800290BD0012908D168460093048143816946104600F0F8F980B23EBD68460093048143816946104600F0E9F9F4E7FFFF0000A401000810B5008904
:40620000002100280BD0012802D0052807D103E000200DF0D9FD02E0084600F01DF9002010BD000010B50248006800F07FFC10BDA4010008FFB581B01F00154606463CD02E
:4062400001F016F8FCF7FAFB2F49304B4878401CC0B2044606E02201D218127A202A2AD0641CE4B2202CF6D3002406E02201D218127A202A1FD0641CE4B28442F6D32024B9
:40628000202C1AD03470029821490202120A200602432001C61872601F501B4869180078009120280CD0FFF7CBFC0746BD4223D3281AF0601BE04C70E2E7164805B0F0BD53
:4062C00013484042854207D9FFF7F6FC014611488142F3D0009807E0A8B2FFF7EDFC01460C488142EAD00020F060074804703472FCF78EFB0020E1E7FFF7EEFC781B01216A
:4063000000F046F9DCE70000A8010008601F0008C063FFFFFFFF000070B5074CA5780D2D07D2FFF787FF002802D1A178491CA17070BD024870BD0000A8010008FFFF000013
:4063400070B5074CE578002D01D0064870BDFFF771FF0028FAD1E178491CE17070BD0000A8010008FFFF0000F8B520280BD2234D07017C19207A202805D000F079FFE06845
:40638000002802D031E00120F8BDFCF757FBFFF757FC012100F0FCF80020184EE060FFF79BFCFCF735FB00F0C1F80546202819D0FCF744FB280186191148F168814205D980
:4063C0000646FFF779FC0021304604E088B2FFF773FC0021F06800F0DBF8FCF719FB0948057002E00749202008702020034920720020C8516060E060F8BD0000601F000846
:40640000409C0000A801000810B5074CA178002908D0FFF7A9FF002802D1A078401EA070002010BD014810BDA8010008FFFF000010B5074CE178002908D0FFF795FF0028A8
:4064400002D1E078401EE070002010BD014810BDA8010008FFFF0000F0B500258BB02E46089500F005FF00236A4618462C49040161180C7A202C02D0C96800291DD0002157
:406480001154401CC0B22028F0D300240993099800280FD06846005D00283BD020482101081806684168089100210160202241600272C160002D04D028E0012111540B46C3
:4064C000DFE700F033F80546202819D0144829010818C7681348874207D90021074600F057F8FCF7ABFA384606E00021384600F04FF8FCF7A3FAB8B2FFF7DEFBFCF788FAA9
:40650000094805700998002808D00125002E01D00898B047641CE4B2202CB8D30BB0F0BD601F0008409C0000A801000830B50023DB432020094C00210A011219157A202DE1
:4065400006D0D268002A03D09A4201D808461346491CC9B22029EFD330BD0000601F000830B50020084C05462023020111190B72A550401C4D60C0B2CD602028F5D30348CA
:406580000370457030BD0000601F0008A801000830B50B4D00231A015219147A202C0AD0D468002901D0241804E0844201D9241A00E00024D4605B1CDBB2202BEBD330BD8E
:4065C000601F000810B50EC900F0C8FA10BD10B50EC900F0FFFA10BD38B50024E443054600290AD0052000904B68097804A000F059FA2860401C00D00024204638BD00001E
:406600007461736B000000000EB5002005216A46009011815081034869460068FFF7D7FF0EBD0000A401000810B51C481C4C0178491E0170FF206070FCF724FA002823D058
:40664000FCF75AFD01460020FCF726FAFCF776FA401C022811D86288124882420AD0124B0021601CFFF76CFE002803D00D2010F0E7FE10BD0220207010BDFF20F530FCF7B8
:40668000C2F900F075F810BD0548084B02220021401CFFF755FE0028E8D110BDAB010008AC010008FFFF0000E96600102966001010B503480078042801D100F059F810BDC4
:4066C000AC0100080148007870470000AC010008044800210170FF214170FF21F531418070470000AC01000806490878401E087005480178012901D003210170FF214170CA
:4067000070470000AB010008AC01000810B505490878401E08700449FF20487000F028F810BD0000AB010008AC0100080149488070470000AC01000801490870704700006F
:40674000AC01000810B5054C6078FF2803D000F007F8FF2060700020207010BDAC01000810B502484078FFF763FE10BDAC01000810B5114C6078FF2801D0FFF7F1FFFF22D3
:40678000043280210820FCF78BF9002809D00B4B022208E00120207010BD0D2010F050FE10BD074B052204480021401CFFF7C8FD0028F2D1EEE70000AC0100080D67001044
:4067C00029660010C0080A21484380B20849C82801D2084809E002461923C83A5B019A4201D2400801E0FF20F530488070470000AC010008FFFF000010B50F4A0023136019
:406800000E4A13600E4B18600E4801600E49012008600E490860282090600E490C4808600D49143008603C38506000F0C5F800F0F5F9002010BD0000C8010008B0010008F3
:40684000DC010008E0010008CC010008BC01000888210008C0010008D401000800207047014610B50020002910D0094B1A689C685118A14209D25868196080188A0704D016
:406880008A07920F891A091D196010BD002010BDB0010008F8B50024164E671E321F3D463168136806E01422624310328A58521C1BD0641C9C42F6D36A1C14D02C461422D8
:4068C000544322460C3288500C214843FFF7C8FF3168002808510AD031680020103408517068401C70602846F8BD2546E4E73846F8BD0000C0010008F3B50026F64381B033
:4069000000281FDB2149096888421BD80299002918D01E4F142204463F1D54432546396810354859401C0DD0F9F7E3FDFCF786F838682F1F4159C359994205DBF9F7D5FD84
:40694000FCF766F83046FEBD214608310091465801590C20704308180C220299FEF76BF90A48761C001D0068C159B14200D100260649009A091D865008684159491C4151F8
:40698000F9F7B3FDFCF744F80020FEBDBC010008002803DB07490968884202D90020C043704704491422091D096850431030085870470000BC010008F0B500200D4A451EDA
:4069C0000346171F50600FE014260146714314680E1DA3510C461668083433511668083435511468401C635039688842ECD30020F0BD0000C0010008F3B50026F64381B056
:406A0000002845DB26490968884241D8029900293ED0234F142204463F1D54432546396810354859401C33D0F9F763FDFCF706F83868415900292DD0211D009146580C2108
:406A4000005971430F46C1190C220298FEF7F3F813480021001D0068761C00590C34C0190160416081600E48001D00680159B14200D100260A49009A091D86500868415938
:406A8000491E4151F9F731FDFBF7C2FF0020FEBD3046FEBDF9F729FDFBF7BAFFF8E70000BC010008FEB504460D4600201E49089E0860471E009001900290002C11D04868E1
:406AC00085420ED2002A0CD0002E0AD0642E08D808460C3001681C2068430C18207A002801D03846FEBD0120226020721846FFF7D1FE6060401C13D06681A6810A48276166
:406B00000C3067610179A94200D205710021684601810A462846029B00F05CF82846FEBD00202072DDE70000C801000810B5002810DB0949496888420CD807491C220C31F0
:406B40000968504308184068FFF722FF002801D0002010BD012010BDC801000838B50124009400F03DF838BDFEB50027184EFF433D4600240EE01C20316860430818017AA3
:406B8000002906D04068FFF703FF002801D0254603E0641C3079A042EDDA681C16D01C2130684D434419F9F7A4FCFBF747FF69466068FFF721FF0546F9F797FCFBF728FFB5
:406BC000002DD5D1216868468847D1E7FEBD0000D401000838B50024009400F001F838BD1FB500220C49541E0A60002811DB496888420ED808491C220C310968504308185D
:406C0000406801A9FFF778FE401C02D0002004B010BD2046FBE70000C8010008F0B50021114A4D1E174611710C3F0B46BD6016E008461C2460431668041D35511468064676
:406C4000235014680836A3551468361DA353044616680A34335318301468491C255078688142E5D30020F0BDD401000838B500210091002811DB0F49097888420DDA0D4D64
:406C800004010C3529680859002807D0201D0818694600F073F9002801D0002038BDFBF7CDFE28680F34015D491E0155FBF7B0FE009838BDE4010008F7B582B000250298C5
:406CC0006E1E06602F48D21C024017462E4A2C4610460C380178106805E02301C358002B0FD0641CE4B28C42F7D3711C29D03401211D40180191039900F02EF9002820D19E
:406D000001E02646F1E72048016820460C300F521D480399026820460E3011541A480399026820460F30115403993846484300F0A1F8154900280968085102D00024009070
:406D400011E001251AE01048016801980818009900F02FF9002801D0012502E00098C0190090641CE4B203988442ECD3002D05D10298054906600879401C0871284605B0D5
:406D8000F0BD0000FCFF0000F0010008F8B50D4600216A468C461180002839DB23490978884235DA214B04010C3319680A59002A2ED020460C300B5A801C0E5C1846704322
:406DC0008018954224D3854222D2002006E007465F43BF18AF4206D0401CC0B2B042F6D36046002814D0114E271DC8190C366A46294600F008F900280AD16846008801286C
:406E000008D030682946C01900F0D3F8002803D00120F8BD0020F8BDFBF710FE30680F34015D491C0155FBF7F3FDF3E7E4010008F8B50F46002400F031F8002817D10C49F8
:406E400000220B460C334A600EE021011D680E466A501D680C36AA53B61C1D680F31AA551D68641C6A54E4B2BC42EED31A71F8BDE401000800280BD0C01C074A8108506803
:406E8000890053884118994203D89368516018187047002070470000E4010008F8B5064600200F4D009029700C0121466846FEF723FE00280CD129460C3100980860301B36
:406EC000001F84B221466846FEF716FE002801D00448F8BD6C800098A8600020F8BD0000E4010008FFFF0000F8B5002827DB19490978884223DA174C05010C342168485985
:406F000000281CD028460C30085A009028460E300E5C401C0E5420682F1DC01900F064F800280CD12068002445590EE0094829460C300068C01900F03CF8002801D001201C
:406F4000F8BD00982D18641CE4B2B442EED30020F8BD0000E401000830B50D4604000BD0A800FFF787FF6060002805D000202570C0436080002030BD012030BD70B50D46CD
:406F8000040005D0002D03D00220205E002801DA012070BDFBF752FD0221615E60688900405828606088401E6080FBF731FD002070BD70B50D46040007D0002D05D0022168
:406FC0002078615E401E814201DB012070BDFBF735FD6088401C00B26080616880000D50FBF716FD002070BD10B5040009D0227800216068FDF728FE0020C043608000209B
:4070000010BD012010BDF0B500231D46002802D00224045F0AE00120F0BD46689F00F6598E4201D1012503E05B1CDBB29C42F4DA15700020F0BD000001B503480122436817
:4070400011466846984708BDB821000810B50021052010F0A3FA10BD70B50546FBF7EEFC0D4C218A002914D0638A8B4209D100206082208201202070A3682A46E068984729
:4070800007E0E0680121C018F9F726FA608A401C6082FBF7BDFC70BDB821000810B50023084A00280BD0002909D001241470141D0BC413825382F9F703FA012010BD137006
:4070C000F5E70000B821000807B509480378012B01D000200EBD02230370C16002820021418201216846F9F7F7F901200EBD0000B821000804480021C160018241820121CF
:407100000170084670470000B8210008FEB5114C114F089E099D00280BD0002909D0002A07D0002E05D0002D03D0002B01D01B2B01D93C460CE00096019508F079FC0428E4
:4071400002D0052803D003E0034C133400E000242046FEBDFFFF160001001600FEB50E4C0E4F089E099D00280BD0002909D0002A07D0002D05D0002E03D0002B01D01B2B73
:4071800001D93C4606E00096019508F09AFC042800D100242046FEBDFFFF160001001600F0B589B015460F460646144C00F060F8002E20D0002F1ED0002D1CD010223946DF
:4071C0006846FDF738FD1022314604A8FDF733FD1021684610F020FC102104A810F01CFC2B46102204A9684608F03AFC1021284610F012FC0024204609B0F0BD010016006F
:4072000010B50FF095FD0AF0E1FC0EF0CFFC10BD10B50FF08FFE0BF015FD10BD10B508F041FE0FF0DDFB10BD10B50DF0C3F80FF08FFD0AF065FD0EF0C3FC10BD10B50DF010
