:020000041000EA
:4000000000000108310100100D00000095010010000000000000000000000000000000000000000000000000000000009101001000000000000000009101001091010010DC
:4000400091010010990F001091010010910100109101001091010010910100109101001091010010910100109101001091010010910100109101001091010010910100104A
:400080009101001091010010910100109101001091010010910100109101001091010010910100109101001091010010910100109101001091010010910100109101001020
:4000C00010B5064C2378002B07D1054B002B02D0044800E000BF0123237010BDDC19000800000000A0680010084B10B5002B03D00749084800E000BF07480368002B00D16F
:4001000010BD064B002BFBD09847F9E700000000E0190008A0680010C4020008000000007047EFF3108072B6704780F310887047FFF7F6FF72B6104C104DAC4209DA216815
:400140006268A368043B02DBC858D050FAE70C34F3E70B490B4A0020521A02DD043A8850FCDC094809490860BFF34F8F00F01EF900F01EF8FEE70000E0AD0110F8AD011070
:40018000DC190008642C00080000000808ED00E0FEE7FEE700B504207146084202D0EFF3098001E0EFF30880043002F0DDFDFEE710B50021002000F0A5FA002000F06EFBAE
:4001C00000F020FA62B60B4B5B689B0301D502F05BFD002001F07CF8FA20400002F06AFD054800F057F906F02DFC002002F006FDF9E7C046000026400000081070B56249D9
:40020000E0239B00CB580F2213401A00D0329200525807210A40032A05D0042A06D0002A12D15A4814E05A4A106811E01A00C0329200554952581F210A40112A06D0132A3B
:4002400004D0FA20C00103E0524801E080200002002B36D14C4BB222D2009A5801211140B125ED005A59120F032422405B591B0F1C4207D0444C63591B0F03242340012B9C
:4002800002D102E0012300E00023002B01D0002901D1032A4BD13C4BB022D2009D58AD03AD0B3D495958C904C90C9C58240E01231C40013403F0DCFC6843210003F0D8FC88
:4002C00035E0012B33D1304BC822D2009A5801251540C024E4001A59120F03210A401B591B0F194207D028490B591B0F03210B40012B02D102E0012300E00023002B01D009
:40030000002D01D1032A12D11F4DC022D200AB587F210B40A958090A1F263140AC58240C3440584303F0A4FC210003F0A1FCE0239B00154AD3581B0903221340D840144C13
:400340006060164B1D692D0AFC32154001351969090E013103F08CFCA060290003F088FC0500E06020610E4BC0180E4903F080FC20750D4BE818FA21890003F079FCA06149
:40038000C003E06170BDC0460000264000127A00C000000800366E0184050000000021403F420F0040420F00E703000010B5234BB021C9005A58520052085A50E02080005D
:4003C0001A583024A2431A50802252045A501C491C4A9950A021890104329950FF211A4A995081315A58920092088020C00502435A505A588020000602435A505A580120BD
:4004000082435A5000F0FCFEFFF7F8FE00F0CCFD00F0D4FD01F014FFB0235B055B78002B04D0B0235B055B78DBB200E02123212B03D1064B0022DA605A6010BD0000264083
:4004400001000200840500008C050000E00023408023024AD3580320184070470000214010B5FFF75EFE084980228C58074B2340074C23438B508823034AD358DB06FAD565
:40048000FFF753FE10BDC04600002140FCFF00000100FA0570B50500FFF743FE0400FFF7D7FF032801D1FFF7DBFF0A4AB0239B00D55080215058084B0340084803435350C9
:4004C0008823044AD358DB06FAD52000FFF72DFE70BDC04600002140FCFF00000300FA0570B504004368012B03D91A210D4802F007FCA368FF2B03D91B210A4802F000FC68
:400500006368012B02D1207B07F0FCFC002305E05D1CE318187C07F0F5FC2B00A2689342F6D370BDD057001010B5034A0349002000F0F4FC10BDC046197F0010E10400106A
:4005400030B583B005000C1E03D15921054802F0D7FB00942B0000220021002000F08AFC03B030BDD057001010B500F0D1FC10BD10B500F0FBFC10BD10B50400007B00F06A
:4005800033F9606010BDC04610B50400007B216900F0B8F8606010BD10B50169007B00F0EBF810BD10B50400C06800F077F9606010BDC04610B5C06800F084F910BDC04626
:4005C00010B50400C06800F097F9606010BDC04610B5C06800F0AEF910BDC04610B504000C23C05E00F056F8606010BD10B50C23C05E00F069F810BD10B5C06800F0E8F9D1
:4006000010BDC04610B500221849042001F022FA01221749042001F01DFA02221549042001F018FA03221449042001F013FA04221249042001F00EFA05221149042001F03E
:4006400009FA06220F49042001F004FA07220E49042001F0FFF908220C49042001F0FAF909220B49042001F0F5F910BD790500108905001099050010A5050010B505001023
:40068000C1050010D1050010DD050010ED050010F905001010B50212FF231340072202400D2B07D8072A05D802F0C7FB02F0C9FB002005E0AB21034802F022FB0120404266
:4006C00010BDC046E857001010B50212FF231340072202400D2B07D8072A08D802F0ADFB02F0AFFB002304E001235B4201E001235B42002B03D0C121014802F001FB10BD73
:40070000E8570010F8B504000D00032803D9CB21174802F0F5FA63001B199A00154BD358AB4203D2CC21124802F0EAFA02F085FB6200121993000F4AD3189A680123AB40F7
:40074000134210D10B4F61000E19B600B446BE191343B3606A1C72606146CB599A4203D90022726000E0FF2502F06BFB2800F8BDE8570010E000000870B504000D000328D1
:4007800003D9E421164802F0BBFA63001B199A00144BD358AB4203D2E521114802F0B0FA02F04BFB6200121993000E4AD3189A680123AB401A4208D061000C19A100094C7F
:4007C00061189A438A60002401E00124644202F038FB002C03D0F121014802F091FA70BDE8570010E0000008F0B583B005000400032803D9FB21274802F082FA02F01DFB9E
:40080000019025496B00581982008A1850685B199A005358984203D3FF211E4802F070FA6A00521993001C4AD3185F681FE01A496300181982008A1850681B199A005358EB
:40084000984205D9620012199300CB1800225A60620012199300104AD3185B689F4212D0610009198A000C498A1801335360620012199300084AD31859682800FFF742FF8E
:400880000600FF28D3D0019802F0DBFA300003B0F0BDC046E8570010E000000810B5040007280AD802F0C9FA054B1B5D002B02D10122034B1A5502F0C4FA0120404210BDE6
:4008C000F819000810B5040007280AD802F0B5FA074B1B5D012B02D10022054B1A5502F0B0FA97214900034802F00AFA10BDC046F8190008E857001010B504001F2813D8A6
:4009000002F09BFA0A4B1B1930229B5C002B06D1074B1C192F3A3023E254002401E00124644202F08EFA01E001246442200010BDE000000810B504001F2813D802F07DFAB4
:400940000D4B1B1930229B5C012B06D10A4B1C1900223023E254002401E00124644202F070FA01E001246442002C04D0A8214900024802F0C5F910BDE0000008E857001082
:4009800070B505000E0004001F2804D97A21FF310D4802F0B5F9002E04D1BD2149000A4802F0AEF902F049FAA300084AD3189B68002B03D1A4001419A66001E001256D425E
:4009C00002F03FFA280070BDE8570010F819000810B5B0214905144BCB5C3F221340134C0C5D224092011A43114BCC5C1F2323401B031343C022D200895C7F220A40520460
:400A000013430C4A50215354190A503251701B0C9370002305E0074AD2185021525CC2540133052BF7DD10BD040600000506000003060000E00000080378012B02D0082B33
:400A400006D00BE0074B1B68002B09D1002008E0054B01229A609A61002002E0002000E002487047801A000800003840FF0042000022054B1A6001218023044AD150BFF33B
:400A80004F8FBFF36F8F7047801A000800E100E0054A98235B000221D150D3580139C0235B00024AD15070470000384000E100E010B5FFF7DDFFFFF7EBFF254B5B68002B10
:400AC00044D10122224B5A600021224B224AD150224B1868224903F0CBF80138FF2809D81D49802212018C581E4B23400006000C18438850184A8023DB001B49D150D3588D
:400B00001A4C1B4A0021200002F0CCF90123A360184801F0D1FF002803D19B21164802F0EFF80122114B9A61802149000020FFF727FF431C03D1A1210F4802F0E1F80F49AC
:400B40000B484C3000F08AFCFFF7A2FF10BDC046801A00084C0C000000000140C800000840420F00FF00FFFF00FF008000003840F8570010380100084C580010A10B001026
:400B800010B5054B5B68002B01D1FFF791FF84235B00024AD05810BD801A00080000384010B5FFF765FFFFF773FF00F0CBF810BD70B50400012280231049CA50BFF34F8F84
:400BC000BFF36F8F88330E49CE58851B0D4B1A605B68002B01D1FFF76BFF023D6B1D00D9B41C084B9C6086235B00054AD450FFF74FFF0122014B1A6070BDC04600E100E024
:400C000000003840801A000870B51C4E356873685A1C72603F241C40FFF7B2FFA300184A9850B3680133B360164B1B68002B03DA8521154802F064F8124B1B68002B03DD6E
:400C40008621114802F05CF80E4B1B688A235B006B430A4AD3181B7B012B03D08C210A4802F04EF88A235B006B43044AD31802221A73033A034B1A6070BDC0468C1A00080B
:400C8000642B00085C0100085858001010B50122034B5A63FFF774FF9630FFF789FF10BD8C1C000870B5214A956BD36B591CD1633F241C40FFF764FFA3001D4A98501D4A73
:400CC0009368013393601C4B5B68013303D068211A4802F015F88A235B006B43154AD3181B7B002B03D06921144802F009F8114B8A2252006A439918012008730B48806BB8
:400D0000186008690C4908600C339A1804320C4B0221032000F036FE002803D07221074801F0EEFF0022014B5A6370BD8C1C0008642A00088C1A00085C01000858580010F9
:400D4000090C001010B5FFF7ADFF10BDF0B5474680B482B005008846424A946B8A26760033006343404E0C36F618136C591C11643F271F40FFF704FFBB003C4A985002F005
:400D80005CF801904346002B12D11533FF336343354AD3181B7B002B0CD11533FF336343D3189A6980235B009A4205D1012704E0012702E0012700E000278A235B006343DE
:400DC000294AD3189A6980235B009A4205D114336343254AD31801225A73002F09D0214B5B6B002B05D0224B1B68013301D1FFF759FFFFF74BFF019802F023F8002F2AD01E
:400E00008A235B006343184AD3181B7B002BF7D063425C41E4B2110016000C368A22520013006343F618CB181B7B012B07D18A235B0063430C4AD3181B7B012BF7D08A2387
:400E40005B006343084AD31800221A735A735A619A61044B9C637560300002B004BC9046F0BDC0468C1C00088C1A0008642900085C010008F0B54F4680B482B001900D001E
:400E800016009946089F1F4B58601F4A536C01335364002803D0E3211C4801F031FF00241BE031000198FFF751FF8660002305E02978C2181174013E01330135002EF7D121
:400EC000C36805E04A46115DC218117501330134BC4201D2FF2BF5D9C360BC42E1D3002EDFD101225242074B5A60019B9D00064B5D19AB6C002B00D0984702B004BC9146A2
:400F0000F0BDC0465C0100088C1C00085858001010B5022000F080FE10BDC04670B504000E001500072804D90421FF310C4801F0E7FEFFF7BDFD22003100022000F08AFD8E
:400F40000849022000F0B8FD074AA4001419A564936E01339366012B01D1FFF7D9FF70BD58580010090C00108C1C000810B5022000F022FE10BDC04610B50248583000F021
:400F8000B9FD10BDF81C000810B50248B03000F0B1FD10BDF81C000810B50248583000F0A9FD10BDF81C000810B5034A60328021042000F009FB10BDF81D000870B501F0A9
:400FC0003CFF0500094800F005FC094C200000F073FC2000343000F06FFC2000683000F06BFC280001F02DFF70BDC046F81C00086C580010FEE7C046014A024B1A60704791
:4010000001001180000E1F4170B582B0684A116808230B431360674C03E0012001F064FE013C634B1B695B0701D4002CF5D1002C01D1614B00E00023002B02D00520FFF7DB
:40104000D9FF5E4CA022D200A35803218B4301263343A3505A4D04222900684604F07FFB684602F0BFFC574A9020135856490B40135013691B021B0A80204004034313610B
:40108000136919401161E0239B00E2580F218A431643E650E25821318A43E250E258802109060A43E2500021022000F0E1FD0021032000F0DDFD0021042000F0D9FD032143
:4010C000002000F0D5FD0321012000F0D1FD291D0522684604F043FB6946012000F010FE002802D00320FFF785FF3849012000F079FE002802D00320FFF77CFF2F4C344BC8
:40110000E158344A0A4001252A43E250E158324A0A40E250E258802109060A43E250043BE1582E4A0A40E250E1582D4A0A40802189010A43E250E258802109020A43E250DA
:401140001B4A1168274B0B401360002001F07CFEC0235B00E3581D4204D1234AA3585B005B08A3506421002001F016FE1F4B0021C02212019950802000011958124A11403E
:401180008024A401214319508021C900184858505858012417481C5017481C582240C424A40122431A50154A5A505B5802B070BD0000274020A1070002004A0000002640FA
:4011C0001859001000002140FF00FFFF1027000004050000FEFCFFFFFFFF00FFFFF0FFFFFF8FFFFFFFFCFFFF0C0500000000014000FF00804C0C00000408000001FF0080B4
:40120000F0B58FB09621002001F0C6FD01F09CFD002801D101F088FD012001F0E9FB264A516C264B0B40E82189010B435364536C1B0AFF2213403A2B07D11F4A516C204BA8
:401240000B40E82189010B43536401AD34220021280004F08DFA1B4E2A000021300001F0C3F834220021280004F082FA2A000121300001F0B9F8FFF7C7FE134C2A0023009F
:401280000C3383CB83C283CB83C283CB83C22900300001F013FA2A002300303313CB13C213CB13C213CB13C22900084801F006FAFFF7A2FE0FB0F0BD00002740FF00FFFF46
:4012C000FFC5FFDF00003240185900100003324010B50C4B0C4A5A600C4A9A600C4ADA600C4B1B78002B06D1064801F0D3FE0122084B1A7000E00020002801D101F0D6FE1D
:4013000010BDC04664010008085900106C59001000006140E81E000810B583089A00801AC000FF228240D44381400A40072B32D89B001949CB589F46184B196A0C40224357
:401340001A6228E0154B596A0C4022435A6222E0124B996A0C4022439A621CE00F4BD96A0C402243DA6216E00C4B196B0C4022431A6310E0094B596B0C4022435A630AE065
:40138000064B996B0C4022439A6304E0034BD96B0C402243DA6310BDAC5900100000214083089A00801AC100FF228A40072B2BD89B001748C3589F46164B186A1040C840AE
:4013C00023E0144B586A1040C8401EE0114B986A1040C84019E00F4BD86A1040C84014E00C4B186B1040C8400FE00A4B586B1040C8400AE0074B986B1040C84005E0054B7F
:40140000D86B1040C84000E00020C0B27047C046CC5900100000214070B504000D000B4B9A680B4B9A420BD1002903D1FC21094801F066FC1034064BA400E058E55003E069
:401440001034A400044BE05870BDC04600ED00E000000008EC59001000000010F0B583B0041E019150D04368032B03D93621294801F046FC0023E05E002802DBA178FFF7BF
:401480004BFF0023E25E6368002A12DB9008224EC0308000875903210A40D200FF25290091408F4399012B000B4093403B43835117E092B20F211140083989080631890092
:4014C0001648844661444E6803200240D200FF2738009040864398013B000340934033434B600E4B9A680E4B9A420FD1019B002B03D14521074801F003FC0023E05E019985
:40150000FFF78AFF002002E0064800E0002003B0F0BDC046EC59001000E100E000ED00E0000000080100560070B504000D000369002B0ADA0B0C03D00549064801F0E0FB31
:401540002D042D0C6560002000E0034870BDC046B3020000305A001001008A0070B505000C000368002B01DA002300E0084B002B0BD1EA60230C03D00649074801F0C0FB4A
:401580002404240CAC60002000E0014870BDC04601008A009A020000305A001070B505000C1E03D19921064801F0AAFB2B69002B03DAEB682360002000E0024870BDC046D5
:4015C000705A001001008A00F8B504000E0015000F283FD8002A10D100290ED10F2804D9AA21FF31214801F08BFB6401204B9C466444204B1C60002037E0002D2CD0002E93
:401600002CD0F3062CD10F2C04D9AA21FF31174801F076FB6401164B9C466444154F3C607E60BD60F2080021280004F0A1F800212000FFF779FF3A0001CA0021FFF78EFF71
:4016400000280FD10B4B18680021FFF76DFF00280AD10AE0084808E0074806E0064804E0054802E0054800E00448F8BDB05A001000002340EC1E000803018A0001018A0077
:40168000F0B583B00D001C4B1B68DC68236883422DD947097B01C01A012383401E00002903D101F0CAFB019001E000230193124B18680368002B01DA002300E00F4B002B64
:4016C0000ED16368BF00DF193B68334203D133433B60002400E00A4C0021FFF725FF00E0084C002D04D1019801F0ABFB00E0064C200003B0F0BDC046EC1E000801008A003C
:40170000020188000301880004018A00F0B583B00D001C4B1B68DC68236883422DD947097B01C01A012383401E00002903D101F084FB019001E000230193124B1868036811
:40174000002B01DA002300E00F4B002B0ED16368BF00DF193B68334203D0B3433B60002400E00A4C0021FFF7DFFE00E0084C002D04D1019801F065FB00E0064C200003B08B
:40178000F0BDC046EC1E000801008A00020188000301880004018A000A4B1B68DA68136883420BD943095901401A0121814052689B009B580B4203D0034802E0034800E052
:4017C00003487047EC1E00080101880004018A0000018800034B1B68002B01D1014B18607047C046F81E0008F0B5474680B404000F0090461E002B4B1B68002B03D1B4218C
:40180000294801F07DFA072C03D9B521264801F077FA244B1B682C2060431C18FF22150035402560330A13406360330CA3600F2D04D9AA21FF311D4801F062FA6B011C4AA8
:4018400094466344236165680F2D04D9E2214900164801F055FA6D01164B9C4665446561A668330C04D0F1214900104801F048FA330C04D0E421FF310C4801F041FA36046A
:40188000330C1E43AE604346E36127620023A361069B002B02D000229B5EA38104BC9046F0BDC046F81E0008F05A0010B05A00100000234000102340F0B58FB0041E03D195
:4018C00050212E4801F01CFA6368032B03D952212A4801F015FAE36A002B03D15621274801F00EFAE368072B03D95721234801F007FA236A072B03D95821204801F000FA80
:40190000236B002B03D159211C4801F0F9F907AA1300210061C961C321C921C302AD290023001433C1CBC1C141CB41C10821535E0CAE3380079B1933B370089B0D930B9BB9
:401940000A980096A26AE16AFFF74EFF2B69E868002200920021FFF747FF216B3000FFF77DFD0023F25E002A05DB1F231A401E3B9340034A13600FB0F0BDC046F05A0010A3
:4019800000E100E0F8B504000F0016001D00002A03D1FD21284801F0B3F9284B1B68002B03D1FE21244801F0ABF9072C03D9FF21214801F0A5F9072F04D9802149001E48AB
:4019C00001F09EF91D4B1B682C2120004843181879435918012213004C68A3401B044468A24014000269002A20D08F69002F1FD11268002A01DA002200E0114A002A19D105
:401A000032681204120C134333600369DE6001238B614D620569230C03D00A490A4801F06FF92204120CAA60002004E0074802E0074800E00648F8BDF05A0010F81E0008EB
:401A400001008A009A020000B05A001004028A0007028A0070B504000D001600134B1B68002B04D16221FF31114801F049F9072C04D9B12149000E4801F042F90B4B1B6810
:401A80002C2060431C18236A002B04D1B3214900074801F035F9E369B34204D9236AB6009D51002000E0034870BDC046F81E0008F05A00100A028A0070B504000D000B4B84
:401AC0001B68002B04D19421FF31094801F018F9072C04D9CA214900054801F011F9034B1B682C2060431818856270BDF81E0008F05A001070B582B00400002301930028E9
:401B000004D1EA2149002B4801F0FAF82369002B04D1D621FF31274801F0F2F86369002B04D1EB214900234801F0EAF8236A002B04D1D821FF311F4801F0E2F86269D568DA
:401B40002B0C1FD01B041360136820690369002B18DA01A9FFF722FD00280ED1019803681E0CFF221340E269934207D29B00226AD358002B02D0984700E0002631002069D1
:401B8000FFF7D2FC2D042D0C0FD063691D601B68636A002B03D098470023636203E0A36A002B00D098470023A36163691B6802B070BDC046F05A001010B50400114B1B6893
:401BC000002B03D11049114801F09AF8072C03D90F490E4801F094F80A4B1B682C20604318180C23C25E002A0ADB1F231A401E3B9340802207498B50BFF34F8FBFF36F8F4D
:401C0000002010BDF81E00082D020000F05A00102E02000000E100E010B504000F4B1B68002B03D10E490F4801F06AF8072C03D90D490C4801F064F8084B1B682C206043AE
:401C400018180C23C25E002A05DB1F231A401E3B9340064A1360002010BDC046F81E00084D020000F05A00104E02000000E100E004281DD8042904D94B1EFF3B9BB2132B2C
:401C800018D8FF290CD91F2319400B4A0300C0339B009950D03080000423835000200AE007231940D0308000034BC150002002E0024800E0014870470000264001004A00FA
:401CC00010B50400042804D91621FF310A4801F017F82300D0339B00084A985807231840042807D1C034A400A3581B30184080235B00184310BDC046305B0010000026406D
:401D000070B50300012823D102008032FF32920030481258002A1DDB8A78023AD2B20E2A1AD84A78002A19D0122A19D80A78C878002801D0132400E01624944212D8002801
:401D400001D0382000E0702090420DD300200CE021480AE0214808E01F4806E01E4804E01D4802E01C4800E01B48002830D1013B0A79022A1ED00A787F2616404A7812028E
:401D8000F8246401224032438E783604F8256D0334002C4022431600CA78D20680252D052A401400320022431C008134FF34A400084D6251074D8133FF339B005C59084A51
:401DC00014400A791207C02189050A4022435A5170BDC0460000264001004A0003004A00FFFFFFCF70B50C0001281CD1451E104A8030FF3080008358802109060B4383501E
:401E000003E0012000F070FF013C2B009133FF339B00074A9B58DB0701D4002CF1D1002C03D1044802E0044800E0002070BDC0460000264002004A0001004A00F0B5474681
:401E400080B45B4B98426FD89A4274D8594B994278D80124584B1C70FF2806D80E3404400F250F239C46072021E0544B984206D80F2630400F2500239C46002417E0030AC4
:401E80000F2633404E4CA04208D80001F03630401843FF2500239C46002408E00002F026360130401843474D00239C460024FF2A10D81201FF231A401443E022D20202430E
:401EC00016000F3B62461A439446F0273F032F4300203DE0394B9A4208D81204F0273F033A40104306002F43002031E0160A3604F0231B031E403043314B9A420AD81205C9
:401F0000F0231B041A4010430600FF273F042F4300201DE01206F0263605324010430600294F2F43002013E0002700239C460026002426480CE0002700239C46002600244D
:401F4000224805E0002700239C46002600241F4800282AD11E4B1B68002BFBDA164B5B78002B04D01B4B1C4AD358002B19DA1B4A1B4B1A601B4A1C4B1A60174BA322D2005A
:401F800090469D58624695432C4342469C50174C1A59BA4332431A51074A51600D4A995000E0134800220A4B5A6004BC9046F0BD0F060000FFFFFF00FC1E0008FF04000018
:401FC000FF0500000F0F000000000F0F01004A00E00023401C050000000026401F1F0000080126403D3D0000040126401405000003004A0070B582B00022002300920193D2
:402000002C4B1A702C4B1B68002BFBDA2B4B1A682B4B9A4206D12B4B1A682B4B9A4203D0002502E0002500E00125A423DB00274AD4582402220A0023009201931E4B0022D0
:402040005A60002D2DD0009A019B1A4329D0002815D1184B58680A000023002101F09EFF009C019DEE07620832436B0880185941009A019B01F072FF0090019115E0009AE7
:40208000019B0800002101F089FF0A4B5A685408002500196941002301F060FF0090019103E000220023009201930098019902B070BDC046FC1E0008E000234008012640B9
:4020C0001F1F0000040126403D3D000000002640F0231B06C3180F4A934201D8580A18E0EC231B06C3180C4A934204D85B0A8020400218430DE0EA231B069C466044064B41
:40210000984204D8400A80229202104301E0012040427047FFFF0F00FF7F000010B50400FFF7D6FF431C03D0E40503D0002002E0002000E0012010BD214B984230D00ED8B2
:40214000402831D004D800281FD010282AD031E080282BD080235B00984229D02AE0194B984229D007D8A0231B0698420DD0164B984212D01EE0154B98420AD0144B984229
:4021800009D0144B984215D101E0002016E0124814E0124812E0124810E0A020C0030DE007480BE00F4809E00F4807E00F4805E0034803E00E4801E0A420C0037047C0463F
:4021C00006005200010000F0090000A0040000F0050000F0030000F0010052000200520003005200010050000200500005005200FF00520010B50C4B1B69002B11DB0B4BBD
:402200001868FFF799FF0121094B0A4AD150084B084AD358002BFAD1074BD358002BF6D100E0064810BDC04600002340081F00080C040000000025408C0400000200500086
:4022400010B5022202490020FFF704FC10BDC0461D03000870B504000D00FFF75FFF002827D0002D27D0FDF7C9FF144B144A1A6000225A609C60DD60124B19691A69120AC6
:40228000FF2313405A1C0B0E013353430E4C5C430E4B1868FA21890001F0EAFC0100200001F0E6FC0A4BC1188020400003F088FA02E0084800E0074870BDC046081F0008C9
:4022C0000001000500002140C0EA2101C4000008482600000600520010B5FFF78BFF10BD10B50400FFF71AFF00282AD0FDF786FF154BE02252051A601A68802149000A43A8
:402300001A605C6000229A60DA60104B19691A69120AFF2313405A1C0B0E013353430C4C5C430C4B1868FA21890001F0A1FC0100200001F09DFC084BC118002003F040FAA3
:4023400000E0064810BDC046081F00080000214060F59000C4000008980800000600520070B504000D00FFF7D9FE00282ED0002D2ED0FDF743FF174BC022D2041A601A6883
:40238000802149000A431A60832252005A609C60DD60114B19691A69120AFF2313405A1C0B0E013353430D4C5C430D4B1868FA21890001F05DFC0100200001F059FCE1230E
:4023C0009B00C118002003F0FBF902E0054800E0044870BD081F000800002140808D5B00C400000806005200F8B506000D001400002800D142E1002A00D141E1072903D9A5
:402400003921A04800F07CFC2368012B03D93A219C4800F075FC0F2362689A4303D03B21984800F06DFC237A1F22934303D03C21944800F065FCE368032B03D93D219148E1
:4024400000F05EFC2369012B03D93E218D4800F057FC6369012B03D93F218A4800F050FCA369012B03D94021864800F049FCE369032B03D94121834800F042FC236A012BE3
:4024800003D942217F4800F03BFC636A012B03D943217C4800F034FCA36A012B03D94421784800F02DFCE36A032B03D94521754800F026FC236B072B03D94621714800F047
:4024C0001FFC2768072D03D96F49704800F018FC012F04D9BA2189006C4800F011FC002F03D10123AB40736002E00123AB40B3606768072D04D9E4218900644800F000FC9D
:402500000F233A009A4303D06149604800F0F8FBAA00B36A0F210800904083430F4097401F43B762277A072D03D95A49574800F0E7FB1F233A009A4303D05749534800F0F8
:40254000DFFB564BF318DB09554A944663441B01032D0BD81A68E8001F2181408A4311001F223A4082400A431A600BE0291F5A68C9001F208840824310001F223A408A40F6
:4025800002435A60E768082D03D946493F4800F0B7FB032F03D944493C4800F0B1FB6A00736A03210800904083430F4097401F4377622769082D03D93C49344800F0A0FBB2
:4025C000012F04D9CA21C900304800F099FBB36901221100A9408B431740AF401F43B7616769072D03D93249284800F089FB012F03D93049254800F083FBF26A012319001F
:40260000A9408C468A431F40AF401743F7626F00103703210800B84062461043326B8243A0691840A8400243E0690140B9400A433263706BFF2294469043276A1F40636A81
:402640005A00022313403B43A26A9100042739400B431F00E36AD900182319403B000B43226B520161460A401343AD00FE2292001540AB4003437363002002E00E4800E0FF
:402680000D48F8BDB85B0010E7020000F85B00109103000045020000460200000000CEBF00100304D4060000D50600004F060000D2030000D303000001005A0070B50500A0
:4026C0000C00002848D0002948D0FF230A689A4303D08D21224800F013FBFF2322699A4303D08E211E4800F00BFBA3685B0D03D08F211B4800F004FB63685B0A03D090218F
:40270000174800F0FDFAE3695B0F03D09121144800F0F6FA236A5B0F03D09221104800F0EFFA104BEB18DB090F4A944663441B0122682A60E268AA622269EA6262692A635D
:40274000A2686A626268AA61A2696A63E2691A60226A5A60002002E0044800E0034870BDB85B00100000CEBF0010030401005A0010B5074A074813580F24A34302210B43A9
:40278000135004381358A3431943115010BDC0460000214004F0000010B5074A074813580F24A34303210B43135004381358A3431943115010BDC0460000214004F0000014
:4027C0000449054A8858054B0340C020C00103438B5070470000214004F00000FF8FFFFF0449054A8858054B03408020C00103438B5070470000214004F00000FF8FFFFF47
:4028000010B5002000F03AFBB0235B055B78002B04D0B0235B055B78DBB200E02123222B03D8002803D1013002E0012000E0002010BDC04610B50400002000F01FFB00288C
:402840000AD114498A69144B1A40240680235B041C4014438C611BE0002C01D00F4A00E00F4A01210F48FEF779FE00280DD10D4B1B69002BFBDB0B4BDB681B0E1B06A022B1
:402880001206934203D0084802E0074800E0002010BDC04600F02540FFFFFFFE0101003001000030000023400400420070B50400022805D0052803D02349244800F020FA9E
:4028C000FFF79EFF00283CD000F0B7FA0600022C10D10120FFF7AEFF051E18D1FFF748FF1B494B6907229343043A13434B61FFF767FF0CE016494B6907229343043A134309
:402900004B61C82000F0F0F9FFF76AFF0025002D13D10F494B69072293431A000723234013434B61052C08D1C82000F0DDF9FFF733FF0020FFF77EFF0500300000F081FACE
:4029400000E0044D280070BD37060000385C0010000026400300420010B50400012803D90D490E4800F0CCF9002C03D10C4B5869C00F00E00020012C0CD1094B9B695B0072
:4029800005D4074B9B69002B03DA012002E0012000E0002010BDC0469C060000385C00100000264070B504000D00072803D90D490D4800F0A5F90D4B9B69072213402100CA
:4029C0009C420DD0094882690726B243344014438461002D04D0994202D9C82000F084F970BDC046FC060000385C001000002640F8B50500012804D9EA21C900294800F0D6
:402A00007FF9FFF7FDFE002848D000F016FA0700002D17D1E823DB00B0225205D65CF6B20120FFF707FF041E1FD1FFF7A1FE1E481E4943581F229343143A13434350FFF778
:402A4000BFFE12E01A4BB0225205D65CF6B21648164943581F229343143A13434350092000F042F9FFF7BCFE0024002C12D10E490E4A8B581F20834306401E438E50012D18
:402A800008D1163800F030F9FFF786FE0020FFF7D1FE0400380000F0D4F900E0054C2000F8BDC046385C0010000026401CFF0000410700000300420070B5040000F0BDF9F1
:402AC000002C05D01A4B1B681F2B03D9002502E0002500E00125002D25D0E368002B1FD02368002B1ED0124B59680B00002203E0A34204D01A005B69002BF9D100E00025AB
:402B0000002D10D0002902D1094B5C6000E05461226100236361064A13680133136002E0002500E0002500F08CF9280070BDC046181F000870B584B005000E00042803D97C
:402B400029492A4800F0DCF8731EDBB2012B07D9042E05D0082E03D02549244800F0D0F8042E01D0012E1DD1224B5C68002013E023799D420FD1A368002B01D01E420AD1E0
:402B8000E36801A85A6842609B688360067023689847184B9C606469002C23D0164B9842E6D11FE0134B9C68022E02D1002C00D02469002011E023799D420DD1A368002B2D
:402BC00001D01E4208D1E36801A85A6842609B6883600670236898472469002C02D0064B9842E8D104B070BD95080000385C001096080000181F0008FF00420070B50500D4
:402C0000012804D94E21FF311B4800F079F81B4B1B68002B05D001210020FFF78BFF040000E00024002C20D100F007F90600134B1B68002B03D004210020FFF77BFF104A77
:402C4000136904218B431361012D01D030BF00E020BF300000F0F5F8084B1B68002B09D008210020FFF766FF04E002210020FFF761FF044C200070BD385C0010181F00083C
:402C800000ED00E0FF00420010B500F0D6F8074B5A6807490A40E824A40122435A605A68114059605B6800F0CCF810BD00002640FF00FC0F10B5040006E0084B186800F013
:402CC000B3F8074B9C46644480231B029C42F4D8044B1868604300F0A7F810BDDC0000080080FFFFD800000810B5034B1B78584300F09AF810BDC046D400000801BEFEE7BD
:402D000070B50D00044C18220100200002F038FDA5610020FFF7F2FF100600080122014B9A60704700002540054B802212069A649B6C002B01DB002000E002487047C046C2
:402D40000000274003004600054B8022120198585B68FF221A4202D08023DB021843704700002640FEE7C04610B50A4B0268DA6142681A6282685A62C2689A620269DA6261
:402D800042691A6382695A63C2699A63FFF7EAFF10BDC04610060008F0B5002801D0192200E064228A42924152421C4BE8256D005C590327BC433A4014435C515C59184E81
:402DC00034405C51D03D5C59BC4322435A515A5916405E51002805D010290DD921290DD8012014E01D290BD93A290BD957290BD978290BD803200AE0002008E0022006E053
:402E0000002004E0012002E0022000E00420054A13680F218B4303431360F0BD00002140FFFCFFFF000025400230800803D001300238FCD1C046C0467047EFF3108072B656
:402E4000704780F310887047042805D1094A116804230B4313600CE00006C0239B04184090239B00044AD050024A136804218B431360704710E000E00000214010B50400BD
:402E80000F2803D9E4210548FFF73AFFA402044B9C46644423680F20184010BD785C00100040244070B5002800D193E0002A00D192E053681B061D0C93689B048024E40271
:402EC00023402B43D4682504C024A4022C40234314692506E024E4042C402343147F002C01D0012400E0002423430C1DA4012350D368002B06D18B01C3180933FF33002444
:402F00001C600EE0012B06D18B01C3180933FF3314681C6005E08B01C3180933FF3301241C601369002B0AD18B01C3181C000D34FF34556925601133FF3394691C608B01C5
:402F4000C3181533FF3314681C60936C5C1C1BD00F25966A2E40146B2502F024240125403543946B2604F024240334402543146C2407240C25431C01FF2323402B438C0124
:402F800004192134FF3423600324556A2540D36A1E012D3434402C43536B1D02C0239B002B402343D46BA401FF252C4023431D00536C9C000C231C402B0023438901411881
:402FC00008002530FF300360136A3931FF310B60002002E0014800E0004870BD0100B60070B50378012B02D0082B40D045E00320FEF7D2FB244B984241D000F017FE012896
:403000003FD0022003F022FD0500FFF716FF1F4B186003F01FFD0400062817D0022D0AD1022005F0B1F9032C01D0052C10D1002810D0174C13E0012005F0A6F9022C0BD03A
:4030400000280BD1FFF7DAFD114C08E0002406E00F4C04E0002402E00D4C00E00C4C0C4B9C420FD1094B1868FFF7EBFE0AE0074B1868FFF7E6FE002404E0054C02E0044C71
:4030800000E0034C200070BD01018800441F0008FF004200002803D0024B5860002000E001487047441F00080100160000B58BB028220021684602F05BFB154B6A46938167
:4030C000FB2313835383F83B1377013353770C33D377202269468B5401328B545B334B840122453BCA540B48FFF7E6FC03F08CFC03F092FC03F08CFC06A803F0DBFC0028C0
:4031000004D1054B0193684603F0A8FC0BB000BD90130000780100084C060008014B024AD050704778F0010000003C4010B50BF085FE10BD10B5002809D0FA23FF33994247
:4031400007D80A00044902F00AFB002002E0034800E0024810BDC0460708001601001600F0B55F4656464D464446F0B4B14CA54481460E00904605930B00AF4A914204D918
:4031800042468A18AD498A4211D9AD4A934204D94246B218AB498A4209D9AB4A934200D823E14346F318A94A934200D922E1A84B5B695B0010D5A64B5B6907241C40022C5D
:4031C00025D10520FFF772FB0190A24B9842F8D003940123049324E09F4B9D4AD3581F221A40E823DB00B0214905CB5C9B1A5A1E9341DBB20493002B0FD10120FFF7F8FBDE
:40320000944B9842F9D001900523039309E00394012304930023019303E005230393002301938E4B019A9A4204D1EB2149008C48FFF766FDF0231B069C466644730A9A46AF
:403240005C0200210320FEF71BFA0028F9D100250023029399E0B4421BD3BD4219D24A4652191078804606A84146C154594600290DD1802149058846A044414609786846FC
:40328000017001781278914201D001229346013505E080225205A218127806A8C2540134013304E0002100238B46844647466D4A9342D0D959466046B846002962D0019BB6
:4032C000002B5FD1059B002B51D1C83300951D00B3465646A24680231B03F7187F023800FEF7FEFF0400013D0120FFF7FDFCA423DB0322001A409A4201D1002DEBD12200B5
:403300000294009D5446B2465E46574B9A4205D1FEF7E2FF554B9842FAD00290029B002B19D1C83300971F00A34606A90098FFF717F80400013F0120FFF7D6FCA423DB03BA
:4033400022001A409A4204D1002FEED102945C4601E002945C46444B029A9A4211D1FEF7BBFF424B9842FAD0029001200AE0802000035044400206A9FEF76CFF0290012040
:4033800000E0012001239C46E244029B019A134301D1454586D3002801D0FFF7BFFC00210320FEF7B3F90028F9D1019B002B25D1274B5B695B0009D5039B022B06D102202C
:4033C000FFF774FA0190234B9842F8D0204B1B681B0213D4049B002B10D10020FFF708FB01901C4B9842F8D008E000230193204B029303E0002301931D4B0293019B002B7B
:403400000CD11C4B029999420AD0194B994207D0002901D1002004E0174802E0174800E0174887239B009D443CBC90469946A246AB46F0BDE4FDFFFFFFFFFF0F00001010A0
:40344000FFFFFF1300800014FF070016000A001600002640040042001CFF000003004200B85C0010FF0100000100500002005000060052000200520013001600120016009C
:403480000100160010B500280AD0FA23FF33994208D8F93BFF3B0A000349FFF761FE02E0024800E0014810BD070800160100160000207047B0235B05588880B27047C046D4
:4034C0000020704710B5FFF70FFC10BD10B5FDF74BF8074B1B681B6800229A5E002A05DB1F231A401E3B9340024A136010BDC046481F000800E100E010B5FDF739F8094B22
:403500001B681B6800229A5E002A0ADB1F231A401E3B9340802204498B50BFF34F8FBFF36F8F10BD481F000800E100E0A023DB00024AD358032018407047C04600002640DA
:40354000024B034AD058C00F7047C0461C0500000000264010B5FEF74DFD10BD70B504000D0016000320FEF717F9054B984205D0320029002000FEF761FC00E0014870BD0F
:403580000101880003004A0070B5431ADC171B196340934227D3164B164CE458A405A40D884208D9401A51084018110000F060FB201A0ED50AE0081A51084018110000F0D3
:4035C00057FB00190C4B984202D802E0002000E00A48084D06496B589B0A9B028205920D13436B5001E000240020201A70BDC0463C05000000002640FE030000FF03000005
:4036000010B5034B1A6880210902FFF7BDFF10BD9001000810B500F0B1F90220FFF77EFD094C236818680949FDF718FF23681B6800229A5E002A05DB1F231A401E3B934088
:40364000034A136010BDC046481F00082D31001000E100E00420704710B5FFF7EEFB10BD10B5FFF7EEFB10BD10B50021FFF79AF910BDC04670B50D000F4B184300040F4BD5
:40368000D861FA24A40003E0013C0120FFF72CFB0A4B1B6CDB0701D4002CF5D1002C08D0064B196C01220A431A64DB6A2B80002000E0034870BDC0460080FFFF00003C40FC
:4036C0000400160010B500040E4B184001430E4BD961FA24A40003E0013C0120FFF704FB094B1B6CDB0701D4002CF5D1002C06D0054A116C01230B431364002000E00348E1
:4037000010BDC0460000FF7F00003C4004001600F0B583B006000A24C02149017548FFF7D1FF002804D16B46991D7248FFF7A2FF002C01D0013C00E06F48002805D16B46B3
:40374000DA88C0235B019A42E6D1002825D16B46991D6A48FFF78EFF00281ED16B4606331B885B0519D40A248021C9006348FFF7A9FF002804D16B46991D6048FFF77AFF0E
:40378000002C01D0013C00E05B48002805D16B46DA888023DB009A42E6D1002804D16B46991D5748FFF766FF002844D16B4606331B883F229343B278012A15D1F1780129FD
:4037C00004D88FB20222D21B95B201E000250227402213439BB2302213436A46D380494BCB40494A136013E0F178002904D18FB20122D21B95B201E0002501274022934378
:40380000102213436A46D380404BCB403E4A13606B469C1DD9883943D9803948FFF752FFF378DB1B03221340AA0092B213432380374A38498B50B0235B055B78002B04D062
:40384000B0235B055B78DBB200E02123212B4FD0314BB0225205D35A9BB2002B48D0002804D16B46991D2D48FFF704FF002824D16B469A1DDB8860218B4318001380B0253B
:403880006D05254C2B5B60310B405B08034324490B401380295BC901F020C00001400B43204919401180285BC0239B000340DB00194311801948FFF705FF002804D16B46BA
:4038C000991D1948FFF7D6FE002811D16B469A1DD988C023994311800F4BB0204005C05A302303409B00194311800F48FFF7EAFE03B0F0BD021E000004001600031E00002D
:40390000091E00000048E801C00000080024F40064F0010000003C4016180000071E00007FF5FFFFFFE7FFFF061E000070B50C004000084901430848FFF7C4FE051E04D1AB
:4039400006490748FFF7BEFE05006001FFF7CCF9280070BD01100000081E0000376800000F1E00000349044A8858102303438B507047C04600003C4070F00100F0B59DB024
:4039800013A9144B0A00180070C870C270C870C270C870C20AAD28001A002432D0CAD0C0D0CAD0C0D0CAD0C001AC22004833C1CBC1C2C1CBC1C2C1CBC1C20748FEF77EFE88
:4039C00029000648FEF77AFE21000548FEF776FE1DB0F0BDF45C0010000132408001324000023240F8B5051E00D1D4E06E4B5B689B0301D5FFF748F96C4C03E0013C0120E3
:403A0000FFF772F96A4B6B4AD358002B01D0002CF4D1694B674AD358DB0704D5674BD358DB0700D5B9E0624B624AD358002B00D0B5E0FFF7A3FF5F4B6149624A99502A78F4
:403A40008021C9020A4360495A506049604A9950802252009B58DB0700D5A2E05D4B1B6F1B0709D45C4B18685C4B984206D9190000F0FEF8013802E0012000E000204D4B53
:403A80001B68002803D04003554A104300E055481843484B1860444B5B695B000ED501210320FEF77FFF404B5B695B000CD53E4A93698021C9050B43936105E03D494A4A68
:403AC0008858032303438B503A4C3B4AA658474B3343A3504020FFF707F9454BE358DB070BD42700424C01233B514020FFF7FCF803233B514020FFF7F7F83E4F37403E4E83
:403B00003E432D4B2B4AD650FA24E40003E0013C0120FFF7E9F8394B394AD358DB0601D4002CF4D1002C01D0002400E0354C002C23D12049344A8858082303438B50012028
:403B4000FEF70AFF002801D1304E3E43304B1E4001231E43184B174AD650144E03E0013E0120FFF7C1F8154B124AD358DB0701D4002EF4D1002E00D1224C002C03D128008C
:403B8000FFF7C6FD0400002C0CD168782978FFF7CDFE040006E01F4C04E01F4C02E01E4C00E01E4C2000F8BD00002640F07E0E006CF0010000003C40A0F00100B4F00100FD
:403BC00006000001A4F00100A8F0010001000100ACF0010000F03D40C800000800093D00041A0080040A0080C4F0010030000300B0F00100EFFFFEFF20000200104000005C
:403C0000000032400400160068F0010028000200FFFFFBFF010016000300160002001600014B18687047C046C000000810B5002405E02000FEF744F8032804D00134042C61
:403C4000F7D9002000E0012010BDC046A023DB00064AD35803221340012B03D0032B03D1012002E0012000E00020704700002640002243088B4274D303098B425FD3030A14
:403C80008B4244D3030B8B4228D3030C8B420DD3FF22090212BA030C8B4202D31212090265D0030B8B4219D300E0090AC30B8B4201D3CB03C01A5241830B8B4201D38B0360
:403CC000C01A5241430B8B4201D34B03C01A5241030B8B4201D30B03C01A5241C30A8B4201D3CB02C01A5241830A8B4201D38B02C01A5241430A8B4201D34B02C01A52410B
:403D0000030A8B4201D30B02C01A5241CDD2C3098B4201D3CB01C01A524183098B4201D38B01C01A524143098B4201D34B01C01A524103098B4201D30B01C01A5241C30859
:403D40008B4201D3CB00C01A524183088B4201D38B00C01A524143088B4201D34B00C01A5241411A00D20146524110467047FFE701B5002000F0F0F802BDC0460029F7D045
:403D800076E7704703460B437FD4002243088B4274D303098B425FD3030A8B4244D3030B8B4228D3030C8B420DD3FF22090212BA030C8B4202D31212090265D0030B8B420E
:403DC00019D300E0090AC30B8B4201D3CB03C01A5241830B8B4201D38B03C01A5241430B8B4201D34B03C01A5241030B8B4201D30B03C01A5241C30A8B4201D3CB02C01A27
:403E00005241830A8B4201D38B02C01A5241430A8B4201D34B02C01A5241030A8B4201D30B02C01A5241CDD2C3098B4201D3CB01C01A524183098B4201D38B01C01A52418C
:403E400043098B4201D34B01C01A524103098B4201D30B01C01A5241C3088B4201D3CB00C01A524183088B4201D38B00C01A524143088B4201D34B00C01A5241411A00D2DD
:403E800001465241104670475DE0CA0F00D04942031000D34042534000229C4603098B422DD3030A8B4212D3FC22890112BA030A8B420CD3890192118B4208D389019211E4
:403EC0008B4204D389013AD0921100E08909C3098B4201D3CB01C01A524183098B4201D38B01C01A524143098B4201D34B01C01A524103098B4201D30B01C01A5241C30812
:403F00008B4201D3CB00C01A524183088B4201D38B00C01A5241D9D243088B4201D34B00C01A5241411A00D20146634652415B10104601D34042002B00D549427047634683
:403F40005B1000D3404201B5002000F005F802BD0029F8D016E770477047C046002B11D1002A0FD1002900D1002802D00021C943081C07B4024802A14018029003BDC046E9
:403F8000D9FFFFFF03B4684601B5029800F050F8019B9E4602B00CBC7047C046F0B54F464646C0B41604360C9946330005042C0C070C150C63437E436F4365431C0CAD19BB
:403FC00064199C46A64203D980235B02984647446346250CEF191D044B464A4343432D0C240464199918C91920000CBC90469946F0BDC04670B500220C4B04000D0001F02D
:404000005DFA002804D12000290001F0B5F970BD064B00222000290000F05AFE01F0ACF980231B069C466044F1E7C0460000E041F0B54D46564644465F46F0B4924683B082
:4040400004000D0099468B422FD82CD04946504601F05CFA29000600200001F057FA331A9846203B9B4600D574E053465A4693401F005346424693401E00AF4229D826D0CE
:404080005B46A41BBD41002B00DA79E0002200230092019301235A4693400193012342469340009319E08242D0D900220023009201930C9B002B01D01C605D6000980199BD
:4040C00003B03CBC90469946A246AB46F0BDA342D6D900220023009201934346002BE8D0FB0772081A4346467B080EE0AB4201D1A2420CD8A41A9D41012024196D41002149
:40410000013E24184D41002E06D0AB42EED9013E24196D41002EF8D15B460098019900196941002B22DB2B005A46D3402A004446E2401C005B461500002B2CDB26009E4023
:40414000330026004746BE403200801A994100900191AEE7424620239B1A5246DA40414613004A468A4017001F4382E7424620239B1A2A0046469A402300F3401343D5E77E
:404180004246202300219B1A0022009101920122DA40019282E74246202326009B1ADE402F00B446974066463B003343C9E7C046F0B556464D4644465F46F0B41D000E0333
:4041C0004C00CB0F87B0070092468146360B640D98466AD06D4B9C4235D08022430F12041343F6001E43C3009946694B00279C460023644402932B0368001B0BED0F514692
:404200009B46400D009500D178E0604B98426CD05B46DA004B0F802109040B4313439B465346D9005A4B9C46002360444246201A6A40924601901F430F2F00D9B0E055488E
:40424000BF00C0598746374300D088E0002399460233082700260293CDE74346B34649460093029B009A9246022B00D0BFE1002153460122002689461A40444B00213603AD
:404280000C0D2405360B2643434C1B0526401E437600D207760816434846310007B03CBC90469946A246AB46F0BD330003434FD0002E00D1BCE1300001F00AF903000B3B2C
:4042C0001C2B00DDADE11D220100D31A08393A008F408E40DA40B9461643304B00279C46002360444442029385E753465A4613432CD1002300219B46023397E70B4320D0E1
:404300005B46002B00D19EE1584601F0E1F803000B3B1C2B00DD8FE102005946083A91408B461D21CB1A5146D9400B0059460B4351469B469140194B9C46604440420023F4
:4043400074E7002300219B4601336FE703236DE70023994601330427002602934BE703230C27029347E70122D51A382D00DCB0E153461A4000210023002689467EE70023B7
:404380008026994600223603004B77E7FF07000001FCFFFF20680010FFFF0F80F30300005E4500D972E100D16DE1019B4D46013B01930023340002935B461E020B0E1E4344
:4043C0000B020393330C994633041B0C494620000093FFF74DFC009B370043430600494620009846FFF7CAFC2C0C09040C43A04509D9E419731EA74200D95CE1A04500D8D1
:4044000059E1023EE4194346E41A49462000FFF72FFC0300009A80465343494620009B46FFF7ACFC2A040904120C0A4393450DD94346D219013B974200D93AE1934500D8F6
:4044400037E102235B429C46D219E0445B46D21A4346360433439B460399180C0B0C1D00059309045B46090C0C001B041B0C4443049159436B4368431B190D0CEB189C42EA
:4044800003D980246402A44660441C0C09041B04090C20185D18824200D2DEE000D1D7E0161A029B9C465D1BAC459B415B42F61AB74200D106E149463000FFF7D9FB009B20
:4044C00004004343494630009846FFF757FC2E0C09040E43B04509D9F619631EB74200D9F3E0B04500D8F0E0023CF6194346F31A494618000293FFF7BBFB009B0600434319
:40450000494602989846FFF739FC2D0409042D0C0D43A84509D9ED19731EAF4200D9D6E0A84500D8D3E0023EED192404210043463143049E059A3000ED1A0B040C0C1B0CD2
:4045400058436643534354439A19030C9B189E4203D980225202944664441A0C00041B04000C14191B18A54250D34DD001231943964A019B94466344002B00DCF3E64A0797
:4045800009D00F220A40042A05D00A1D8A42894149428B4411005A46D20108D55A468C4B1A4093468022D2009446019B6344894A934200DD5BE65A46C908500708435602C0
:4045C000514601225B058146360B5B0D0A4055E680231B031E4211D05A461A420ED15E461E433603360B2A0089467B4B46E6032B00D1E1E0012BBBD11A40BBE61E43360358
:40460000360B4246744B39E6002BB1D07D194A1EAF4252D91100A542A8D1039A9A42A5D1A6E703003E00283B9E400023994654E600F04EFF203041E603005246283B9A40D6
:404640000021934677E6504600F042FF20305EE6029B0026AB4200D323E7039E0299B44661448846B045B6415B467642F619B218013B0291974213D290424FD800D18EE06F
:40468000161A9B460DE7894500D28EE674084B46F60735005B081D434B46DB0702938BE69742EDD10399029CA142E5D93E1A9B46F7E69846CAE61E00A5E6AC423ED874D05F
:4046C000110053E70121494252E71C000EE71E002BE71F2D3CDC20230A0058465B1B9840EA4099400243481E81415E461143EE404B0709D00F230B40042B05D00B00191D28
:4047000099429B415B42F61833023CD55346012200211A40002601238946AFE502235B429C46039CE344A446029B63449846A045B6417642F6190293B218B1E603988A1E9B
:4047400041008142B6417642F619AD19039161E71F225242D31A5A46DA401300202D29D040225846551BA8400143481E814107200B4318400026002809D00F2200261A4097
:404780001900042ABBD10B0070077602360BDB0803439946012253461A4000236EE502998D42BBD89B4600267BE603989842C5D3110032E70020D7E780265B4636031E43FC
:4047C0003603360B009A8946034B57E5FF030000FFFFFFFEFE070000FF070000F0B55F4656464D464446F0B40D0399464E002B0B87B00700924680469B46760DCC0F002EE1
:4048000069D06D4B9E4235D05B468022DD001204430F13432B439B46C3009846674B00279C460023664401934A4615035000D20F53462D0B400D914600D176E05E4A904249
:404840006CD080225B0F120413435C4AED0094461D4353460022DB00604449463618701C6140029017430F2F00D9AFE05448BF00C759BF465B461F4300D088E000239B4622
:404880009846023308270193CEE74946022A6AD0032A00D109E2012A00D0BBE111400022002300259046CCB200212D030A0D12052D0B1543434A1B0515401D436D00E40720
:4048C0006D0825434046290007B03CBC90469946A246AB46F0BD034352D05B46002B00D18AE1584600F0F4FD03000B3B1C2B00DD7BE11D22D31A3A0001005D46DA40083925
:404900008D4013008F402B439B46B8462E4B00279C46002360444642019385E752462A432CD100250023022297E752462A4321D0002D00D154E1280000F0CAFD03000B3B6D
:404940001C2B00DD46E11D21CB1A51460200D9405346083A954093400D431B4A944660444042002279E7012400220C40124B0025904699E70025002301226EE703226CE7BA
:4049800000239B4698460133042701934CE703230C27019348E700238025984600242D03054B81E75D464346019A6FE75D4643462100019A6AE7C046FF07000001FCFFFFC4
:4049C00060680010FFFF0F80F30300004246120C91461A0C9446424617044A461B041B0C5A43604690464A4642431000039262461C003F0C7A437C4342440192220C9246E9
:404A0000019A5244904506D98246802040028046C24450460390100C049048462404240C1204121905922A0C2D042D0C68432C00824648467C4350438146200C8046574312
:404A400057444744BA4503D9802040028046C144380C3F04B84648442404240C01900498A044404404905846000C814658460404200C8246070048465F434C4643436046F6
:404A800060436446834650464443380C8446E4186444A34203D980235B029C46E34448463F04230C3F0C2404E419574668436F4384464D46504655434243380C814662441C
:404AC0004A445B44944503D9802040028446654403983F04834604983F0C8446E344C345804140428246100484460198674484466744A344BC46A345A4419946D444644203
:404B00008742BF41D4458041E144A04699459B417F424042C8440743120CBA18A045A4415F423B0064422343D71843467D19DB0D6D021D435B465A02059B1A43531E9A41C7
:404B40005B46DB0D1A4343465B021343EA0107D501225C0813402343EA07029E13436D08574AB218002A4BDD580709D00F201840042805D0181D98429B415B42ED180300A3
:404B8000E80104D54F4A15408022D200B2184E48824200DDE7E60124DB08680718436D02530580462D0B5B0D0C407DE6802259461203114208D0154206D115432D03984640
:404BC0002D0B4C46414B6FE65D4615432D032D0B3E4B69E603005546283B9D400023BCE6504600F075FC2030A8E60300283B9F400023BB46984689E600F06AFC203073E6A2
:404C00000124A61A382E07DD00220C4000230025904649E6029EA3E71F2E20DC20222C001800921BF040944093400443581E83411C43F540630709D00F232340042B05D01C
:404C400023001C1D9C4292415242AD182B021FD5012400220C4001230025904624E61F202C004042821AD440202E1CD04022961BB5402B43581E8341072023431840002560
:404C8000002809D00F2200251A401C00042AD8D1230068076D022D0B0124DB08034398460C40002300E60025E3E780220124120315432D0398462D0B0C40044BF4E5C046B3
:404CC000FF030000FFFFFFFEFE070000FF070000F0B557464E464546E0B40E001100F20F9246C500420F180337037400400A4E0F7F0A3043CF4E17435A00640D520DDB0FB2
:404D0000C900B24200D1E5E001267340A61AB446534500D1AFE0002E00DC0DE1002A3AD103000B4300D0E4E06B0709D00F232B40042B05D02B1DAB42AD416D427F191D000F
:404D40003B0200D488E0BB4B01349C4200D110E13A00B94B51461A4001235007ED08520264050543120B640D0B400021280012030D0D120B64052D0515436208AF4CDB0793
:404D80002C401443640064081C4321001CBC90469946A246F0BDA74B9C42C5D080231B0418436346382B00DDFDE01F2B00DD30E1624620239B1A02009A40664690460A0036
:404DC0009940F24046464B1E99413243114363460200DA40691A8D429B410D00BA1A5B42D71A3B0235D57A02530A98464346002B00D1C4E0404600F06BFB0300083B1F2B1B
:404E000000DDC5E020222900D21A4746D1409F400A009D403A439C4200DDC0E01C1B631C1F2B00DDE4E0202114002800C91AD8408C408D400443DA40681E8541170025437F
:404E4000002471E7424663461A4300D14CE2674645466B0700D069E7012351467807ED08FA080B40054373498C4238D012036405120B640D79E7002E00DC9AE0002A47D0D8
:404E80006C4A944200D14FE78022120410436246382A00DC08E10143481E81410022C9B24919D219A942BF410D007F42BF183A0200D442E15F4A0134944200D14EE1012097
:404EC0005D4A69083A4028400843D507054357089A4629E706000E4300D017E714E72900114300D1F9E1802109030A431203120B3BE701235B429846C4446346002B72D1A6
:404F0000691A8D429B413F1A5B42FF1A0D0068E702000A4300D107E7012252429046C4446246002A00D0E6E06918A942B6413F187642F7190D00BAE7002E00D080E0621CC1
:404F40005205520D012A00DCF9E06A1A91464D45B6413A1A7642921B9046120200D499E04D1BA9428941C71B49427A1A90469A463CE752460123002513400022F5E6280077
:404F800000F0A6FA20300300083B1F2B00DC39E72A002838824000259C4200DC3EE7264FE41A1740C0E60143481E81410022C9B210E7002E00D0F1E0621C94465205520DE8
:404FC000012A00DCA0E01B4A944500D1C5E06918A94292413F185242D2194908D5070D4357086446A0E6134B9C4200D0D9E69BE611001F3CE1400C00202B00D180E0402193
:40500000CB1A9A4015436A1E95410027254300241FE763460200203BDA406346202B71D0402366469B1B98400143481E814111430022CFE6FF070000FFFF7FFFFFFF0F80AA
:40504000002C48D0CA4CA24200D1A2E07442A1468024240427434C46382C00DDDBE01F2C00DD44E14E462024A41B3E00A640A246B0464C462E00E640B446464664462643D9
:405080005446A5406C1EA54134002C434D46EF400D1B28E04A4643464D461A4300D0A5E6002300240025DEE61F2A5ADC66462022921B060096409146B04662460E00D64049
:4050C000424616434A4691404A1E9141020060463143C240E4E63C002C435AD0F443A146002C52D14D1BA9428941C71B49427F1A14009A4675E69E4A944200D0C7E613E664
:4051000000227FE700208FE7002C00D0C8E03B002B4300D10FE103000B4300D104E66918A9429B413F185B42DF193B0200D41AE1904B0D001F406446F6E59A4689E63A00A2
:405140002A43002C5CD1002A75D102000A4300D1CAE007000D009A46E6E564460022002581E662460600203AD6406246B046202A00D1B7E040226646921B90400143424653
:40518000481E8141114300228AE6794CA24200D061E707000D0014009A46C5E5002C41D13C002C4378D0F443A146002C20D0704CA24271D04C46382C00DDB2E01F2C00DD95
:4051C000BCE02026341BA2463C005646B4404E46A0462C00F440A446444666463443A4465446A54064466E1EB54125434C46E7406D188D4289413F184942CF19140056E66B
:40520000002A2FD102000A4300D184E007000D009A46574C88E53D436F1EBD41ECB200270D1B60E7524CA24236D0744280263604A1463743BEE702000A4300D174E56A1A5C
:4052400090464545B6413A1A7642921B9446120200D4F7E54D1BA9428941C71B49427F1A9A4661E502000A433AD0ED087C072C438025FA082D032A4208D0C7082F4205D1C6
:4052800045072C003A009A46C9080C43670FD200E5001743364C47E507000D00140043E53A002A4343D002000A4319D0ED087C072C438025FA082D032A4207D0C6082E4286
:4052C00004D147073C003200C9080C43D700620FE50017439A46264C26E50022002544E5234C21E5002049E700230025BBE54C463E00203CE6404C46B446202C31D040246D
:405300004E46A61BB7403D436C1EA54164462C4300270D1BE7E6802200231203144C0025A1E53D436F1EBD410027EDB260E707000D000F4CF8E407000D00F5E44E463C00F7
:40534000203EF440A0464C46202C0ED040244E46A41BA7403D436F1EBD4144460027254346E70027CFE70D0073E50027F2E7C046FF070000FFFF7FFF0B0330B5134D1A0BC8
:405380004B005B0DC90F0024AB4211DD104CA34210DC8024640322430E4CE41A1F2C0CDD0D48C31ADA4013005C42002900D11C00200030BD094BCC18FAE7E040084CA446A3
:4053C00063449A4013000343EEE7C046FE0300001D0400003304000013040000FFFFFF7FEDFBFFFF70B5051E28D000F071F8154B154A1B1AD21A1F2A16DD2C00134A0025C3
:40540000D21A94405A052403240B520D002124030B0D240B1B0523430D4C1205234013435B002800590870BD0B212C00081AC440954024035A05240B520DE7E700220024CE
:40544000E4E7C0461E0400003304000013040000FFFF0F808446101C62468C46191C634600E0C0461FB500F001F9002801D40021C8421FBD10B500F055F84042013010BDE6
:4054800010B500F0F3F8002801DB002010BD012010BDC04610B500F0E9F8002801DD002010BD012010BDC04610B500F07BF8002801DC002010BD012010BDC04610B500F027
:4054C00071F8002801DA002010BD012010BDC0461C2101231B04984201D3000C10391B0A984201D3000A08391B09984201D30009043902A2105C40187047C0460403020276
:4055000001010101000000000000000010B5002903D1FFF7DDFF203002E0081CFFF7D8FF10BDC046F0B55F4656464D464446F0B41F035C00DB0F9A46194B0E034D00C90F54
:405540008046360B6D0D8B4691463F0B640D9D4219D0134B9C421BD00123A54206D018003CBC90469946A246AB46F0BDBE42F6D1C845F4D1D34510D0002DF0D13043030037
:405580005A1E9341EBE7310001230143E7D1E0E73A430123002AE2D1DEE70023DFE7C046FF070000F0B55F46444656464D46F0B41F033C0B2C4F0E034D00A3465C00844685
:4055C000360B6D0DC90F9046640DDB0FBD422BD0254FBC422ED0002D0ED130430700814678427841002C17D15F463A4314D14B460020002B0AD006E0002C02D15846024324
:4056000001D099421AD00123484218433CBC90469946A246AB46F0BD0028F2D058425841012240421043F1E737000743D0D002204042EBE75F461743CDD0F8E7A542E2DCF4
:4056400005DB5E45DFD808D000205E45DED248424841012340421843D8E7C445D3D80020C445F4D3D2E7C046FF070000F0B55F464D4644465646F0B41C03240BA4462F4C0F
:405680000F034D005E00C90F80463F0B6D0D8B469146760DDB0FA54220D0284CA64222D0002D12D1384344424441002E20D0002C0DD05C42634101245B421C4320003CBC59
:4056C00090469946A246AB46F0BD002E17D05B4519D05B465C4201231C43EFE7390002240143EBD1D9E7614602241143E6D1D7E761460A43DBD100240028DFD0E9E7614672
:405700000A43E4D1E5E7B54203DD01225C421443D4E7B542CDDB6745DBD809D000246745CCD259464C426141012449420C43C5E7C845CED80024C845F3D3BFE7FF070000DC
:4057400030B50024A24208D0035D651C0C5DA34201D0181B02E02C00F4E7002030BD002310B59A4203D0CC5CC4540133F9E710BD03008218934202D019700133FAE77047EA
:40578000030030B5002A0DD00C7801335D1E013A2C700131002CF5D19A189A4202D01C700133FAE730BD0000F8B5C046F8BC08BC9E467047F8B5C046F8BC08BC9E46704752
:4057C00001B40248844601BC604700BF49030008424C455F554152545F696E746572666163652E630000000070736F63365F7574696C732E63000000FFFFFFFF0000000052
:405800000000000000000000000000000000000000000000000000000200000000000000000000000000000000000000000000000000000000000000000000000300000063
:405840000100000000005A000300000075735F7469636B65722E6300697063706970655F7472616E73706F72742E630003000000030000000100000000000000050360003A
:40588000040000000100000000000000010000000604600008000000681E0008990F0010080000000100000002000000020000000808000309000000010000000000000000
:4058C000030000000909000308000000881E0008790F00100A0000000100000004000000040000000A0A000C0B0000000100000000000000050000000B0B000C10000000CC
:40590000A81E0008890F00100A0029000300000003001800030000001920010219010200000000000C000000000000000000000000680000000000000000000000000000D1
:405940000000121200000000000000000000000000000000000000BA0000000000000000000000000000000000001D1D000000000D000000080000000002000000000000F8
:405980000000000000000000000000000000000000000000000000000B000000000000006400000000000000200200003813001044130010501300105C1300106813001017
:4059C00074130010801300108C130010B8130010C2130010CC130010D6130010E0130010EA130010F4130010FE13001047656E6572617465645F536F757263655C50536F01
:405A000043365C70646C5C647269766572735C7065726970686572616C5C737973696E745C63795F737973696E742E630000000047656E6572617465645F536F7572636537
:405A40005C50536F43365C70646C5C647269766572735C7065726970686572616C5C6970635C63795F6970635F6472762E68000047656E6572617465645F536F75726365B5
:405A80005C50536F43365C70646C5C647269766572735C7065726970686572616C5C6970635C63795F6970635F6472762E63000047656E6572617465645F536F757263657A
:405AC0005C50536F43365C70646C5C647269766572732F7065726970686572616C2F6970632F63795F6970635F6472762E68000047656E6572617465645F536F75726365BC
:405B00005C50536F43365C70646C5C647269766572735C7065726970686572616C5C6970635C63795F6970635F706970652E630047656E6572617465645F536F7572636597
:405B40005C50536F43365C70646C5C647269766572735C7065726970686572616C5C737973636C6B5C63795F737973636C6B2E630000000047656E6572617465645F536F59
:405B8000757263655C50536F43365C70646C5C647269766572735C7065726970686572616C5C737973636C6B5C63795F737973636C6B2E680000000047656E6572617465EA
:405BC000645F536F757263655C50536F43365C70646C5C647269766572735C7065726970686572616C5C6770696F5C63795F6770696F2E630000000047656E6572617465FE
:405C0000645F536F757263655C50536F43365C70646C5C647269766572735C7065726970686572616C5C6770696F5C63795F6770696F2E680000000047656E6572617465B8
:405C4000645F536F757263655C50536F43365C70646C5C647269766572735C7065726970686572616C5C737973706D5C63795F737973706D2E63000047656E657261746563
:405C8000645F536F757263655C50536F43365C70646C5C647269766572735C7065726970686572616C5C70726F745C63795F70726F742E630000000047656E657261746511
:405CC000645F536F757263655C50536F43365C70646C5C6D6964646C65776172655C626C655C63795F626C655F68616C5F7076742E6300000000000000000000000000003C
:405D000066666666000000000000FFFF000000001C1C1C1C1C1C1C1C00000000000000000000000066E6EE66000000000000FFFF000000001C1A1A1A1A1A000000000000B1
:405D4000000000000000000066E66666000000000000FFFF000000001A1A001C000000007C01000031010000090901120C00FF0380ABCDABCD80409C1B04041BFFFFFFFFD5
:405D8000000000000410080007070400F216FBE0FBE01F60427EF56D720096BE2090000010502604060037D7F401FA00960064004B0032001E00140003040506020D110078
:405DC0009DF1001001F1001053F7001051F2001003F30010FFF6001017F70010D9F700107DF30010E5F30010C1F50010EFF5001027F80010EDF60010BBF70010BBF7001085
:405E0000BBF7001095F600103DF6001081F60010492D0110552D0110213D0110093E0110153E01104DF200109BF1001097F7001001F300103BF300100FF7001031F70010DD
:405E400025F80010E1F300103DF40010DBF5001015F6001093F80010F7F6001025F8001025F8001025F80010E5F6001025F8001025F8001025F8001025F8001025F80010EA
:405E800025F8001025F80010B30D0110BB0D0110B70D0110B10D01108F0D01108B0D0110A90D0110A70D0110830D0110870D0110BF0D0110AB0D0110A50D0110C30D0110C8
:405EC000C30D0110810D0110AF0D0110A12401105528011019260110C5230110D516011089130110591E01109D190110F50E0110590F0110AD290110E521011035190110C6
:405F000009130110E51D011025730010952201104D2A0110D92D0110252F0110F92F0110152C0110A92A0110612D0110892B0110B32B0110C32B0110C52B0110C92B0110E6
:405F4000BBF70010B52B0110BF2B0110BD2B011051410110093B0110BD4001106D40011009410110213E01102D3D0110C53D0110893E0110CDD500102B3B0110213B0110EF
:405F8000273B0110253B0110293B0110233B0110BBF70010BBF70010BBF7001095C4001019540110FB530110FB530110FB530110315401102D930110FB5301101D93011048
:405FC0003593011025930110B3580110AB580110155801100D5801100B540110F3530110E95301100F5401100558011035580110035401102D5801108D580110FB530110F4
:406000003D580110255801101D580110FB530110395401104154011049540110FF530110FF53011019540110FB530110FB530110FB530110315401102D930110FB5301102E
:406040001D9301103593011025930110B3580110AB580110155801100D5801100B540110F3530110E95301100F5401100558011035580110035401102D5801108D58011011
:40608000FB5301103D580110255801101D580110FB530110395401104154011049540110FF530110FF530110557C0110497C0110617C0110FF530110FF530110F5780110C6
:4060C000317901100179011025790110197901100D7901103D790110497901103D7C0110A17E0110A57E0110B17E0110897E0110957E0110FF530110FF530110FF53011004
:40610000FF530110FF530110FF530110FF530110FF530110FF530110FF530110FF530110FF530110FF530110FF530110FF530110FF530110FF530110FF530110FF5301102F
:40614000FF530110FF530110FF530110FF530110FF530110FF53011055790110936F0110416E0110416E0110416E0110C56F0110556F0110416E0110396F01100570011082
:406180004F6F0110DF6F0110D56F0110C36D0110416E0110416E0110416E0110476D0110236F01106D6D0110A56F0110CB6E0110DB6E0110556E0110416E01101B7001108F
:4061C000916E0110836E0110416E01100F6F011053700110416E0110416E0110416E0110E57B0110D97B0110F17B0110D96E0110736E0110417801107D7801104D780110E7
:406200007178011065780110597801108978011095780110CD7B0110DD7D0110E97D0110F57D0110C57D0110D17D0110416E0110416E0110416E0110416E0110416E011034
:40624000416E0110416E0110416E0110416E0110416E0110416E0110416E0110416E0110416E0110416E0110416E0110416E0110416E0110416E0110416E0110416E01101E
:40628000416E0110416E0110416E0110416E0110A1780110C3720110F1710110F1710110F1710110077301106D720110F1710110B5720110B57201105F7201101D73011034
:4062C0000B7301106D710110697101104D72011001710110F3700110F370011005710110E77201102172011035720110F5710110F1710110517301100D720110F9710110E3
:40630000F1710110517201106D73011069730110F1710110F1710110117B0110057B01101D7B011095730110EF70011089770110917701109D770110A97701109177011059
:4063400091770110B5770110C1770110F97A0110E97C0110F57C0110017D0110D17C0110DD7C0110F1710110F1710110F1710110F1710110F1710110F1710110F171011086
:40638000F1710110F1710110F1710110F1710110F1710110F1710110F1710110F1710110F1710110F1710110F1710110F1710110F1710110F1710110F1710110F1710110AD
:4063C000F1710110F1710110CD77011008000000060F0020200107021900000007070E05020220001C1202000103000E0306000400402707000007070102000203070304BC
:4064000000000000000000000000000000000000000000000000000000080000936F0110416E0110416E0110416E0110C56F0110556F0110416E0110396F011005700110E8
:406440004F6F0110DF6F0110D56F0110C36D0110416E0110416E0110416E0110476D0110236F01106D6D0110A56F0110CB6E0110DB6E0110556E0110416E01101B700110CC
:40648000916E0110836E0110416E01100F6F011053700110416E0110416E0110416E0110C3720110F1710110F1710110F1710110077301106D720110F1710110B5720110A2
:4064C000B57201105F7201101D7301100B7301106D710110697101104D72011001710110F3700110F370011005710110E77201102172011035720110F5710110F171011006
:40650000517301100D720110F9710110F1710110517201106D73011069730110F1710110F171011008000000060F0020200107021900000007070E05020220001C1202007B
:406540000103000E032000800000C00000000004000000A822000000000000040000F7FFFF7F00000030000000000000000000000000000000000000000000000000000030
:40658000000000000000000021760110D97701104177011081760110E77701106977011051760110F57701104D7701107F760110F97701106577011069760110E7770110A4
:4065C0005D77011053760110E7770110557701109776011005780110717701109D7601101578011079770110416E0110F1710110FF530110416E0110F1710110FF530110FC
:40660000416E0110F1710110FF530110416E0110F1710110FF530110416E0110F1710110FF530110416E0110F1710110FF530110416E0110F1710110FF530110416E0110AC
:40664000F1710110FF530110AB7601102D78011081770110416E0110F1710110FF530110416E0110F1710110FF530110416E0110F1710110FF530110416E0110F17101105E
:40668000FF530110416E0110F1710110FF53011065790110417B0110E97A011063790110357B0110E17A01108B7901108D7B0110F17A011061790110297B0110D97A0110E9
:4066C000416E0110F1710110FF530110416E0110F1710110FF530110416E0110F1710110FF530110416E0110F1710110FF530110416E0110F1710110FF5301108D7C011092
:40670000497D0110000000009B7C01105D7D0110913F0110A97C0110877D0110C13F01106D7C01100D7D0110153C01107B7C01102B7D0110313C0110303030314238303061
:4067400030313032303330343035303630373038303930413042304330443045304631303131313231333134313531363137313831393141314231433144314531463230C3
:40678000323132323233323432353236323732383239324132423243324432453246333033313332333333343335333633373338333933413342334333443345414200009D
:4067C00026002B00300036003C0043004B0055005F006A00770086009600A800BD00D400EE000B012B014F017801A601DA01130254029D02EE024A03B1032404A5043605B6
:40680000D9058F065C0742084409650AAA0B160DAF0E79107C12BD1445171C1A4B1DDE20A04300106E4200107443001064420010744300107E4300107443001064420010C2
:406840006E4200106E4200107E430010644200105A4200105A4200105A420010D0450010CC4900108C4800108C4800108A480010A4490010A4490010964900108A4800104E
:40688000A449001096490010A44900108A480010AC490010AC490010AC490010AC4B001000000000F8B5074600256846058078683C1D2D492E46002807D06268002A06D0B9
:4068C000800702D1207A800701D00D4649E0FCF7A1FEFCF711FEFCF7BDFE00F02BF900283DD1788C0006C00F00F0A4F905460004000C34D11D49084600F0E4FE0004000CE8
:406900002DD12289A17A2068194C002806D02060A280E68021810021FEF72AFF684601F05BFC054613486B460078E2888000001DC1B21B88A088D418A04206D3C01A801A9A
:4069400080B201F0DBF9044600E00B4C00F06EFD002C04D100F07EFB08490120087000F0F7F82846F8BD000001001600096B0010581F0008941F0008FFFF0000940100087E
:4069800010B503480078012801D101F053F810BD9401000810B5FCF7C9FD032801D100F037FE00F0FFF901F099FC00F0BDFE02490020087010BD00009401000800487047A9
:4069C000581F000870B5044600208A0703D08A07920F891A091D084B89B2DA889E885518B54206D81D68AA182260DA885118D98070BD024870BD0000581F000803001600A9
:406A000000487047641F000810B501F073FB10BD10B501F079FB10BD10B501F07DFB10BD0649002808D0064981800521017000214170022181700021084670470100160090
:406A40009503000010B5FFF79BFF10BD10B501F06BFB10BD10B501F079FB10BD38B50546002069460880002D09D0284601F07AFC0446684601F0A4FB002C02D015E00C4843
:406A800038BD01F05BFB2846FFF70CFF04000CD1284601F0EFFB040007D1FCF747FD032803D100F07BFD00F0C9FD204638BD00000100160038B50446002069460880002CA5
:406AC00008D06189090A05D1617A102902D8E179102901D90A4838BDA0816946204601F00DFC05466946A08909884018A081002D04D1102221460348FEF731FE284638BD7F
:406B000001001600641F00087047000010B5084900200978002909D005F0AEFE044605F071FD201A80B281004018C00810BD00009C01000810B5FCF721FF442202490348A2
:406B4000FEF70DFE002010BD645D0010741F000810B5FCF7BBFC10BD10B519461046044C01F002FA002800D00024204610BD0000FFFF000010B501F023FA10BD10B501F026
:406B800009FA10BD010010B5044806D0044A01201070002007F0C6FD002010BDFFFF00009C01000870B50024034D20462C7007F0E7FD2C70204670BD9C01000801480078B9
:406BC000704700009C01000870B5591C89B24C080B4D64000021451906E028685054000A5618891C707089B2A142F6D3D80705D0D0182038D15CC47FD454C17770BD0000E6
:406C000000103C4030B50A4C002100195B1E07E054186478555C240225430560891C89B29942F5DB994201D1515C016030BD000000103C40F8B50746FF2000F0F3F9164EEF
:406C4000FF2070701548164900684018406B0024410F301D0125022901D0457000E0447005700D48801C4470384612F0C3FB070010D112F001FC3070012000F0D3F912F004
:406C800005FC68460470447012F06AFF6846457012F066FF3846F8BD9D0100089801000840F03D40F0B50021094D5B1E08E0441924685718260A7E705454001D891C89B209
:406CC0009942F4DB994202D1401900685054F0BD00103C4070B500210A4E5B1E09E0541864782502545C2C4385192C60001D891C89B29942F3DB994202D1515C80190160EB
:406D000070BD000000103C40F0B50599091FCFB200217E1E0AE054186478555C24022543144C04192560001D891C89B2B142F2DBFC0710D01C78515C24020E4A0C43811837
:406D40000C609C785D782102001D294384182160001DD9780BE059781A7809021143054A84182160D978001D9B780902194380180160F0BD00103C4038B50948002444703E
:406D800012F084FB69460C704C70684612F0E8FE012069464870684612F0E2FE002038BD9F01000810B501F0C9F90A480078012805D1FCF73BFF012809D012F0B5FF05498C
:406DC0000020891E0870062000F02CF910BD12F095FFF4E79F01000810B50B46062816D006DC01280FD0032801D1FFF7C5FF10BD0B2811D0112813D01228F8D111461846B3
:406E000012F09EFA10BD0020FFF714FF10BD1146184612F023FE10BD04480078107010BD1146184612F09CFA10BD0000A1010008F8B5184D184E28688019846AE00719D01C
:406E400001F0B8F90127012811D1002001F084FA052000F0E7F81149FF204870881C4078002804D128688019416B39434163286880198762E0050CD50848801C00780528D2
:406E800002D1042000F0CEF8FF202968013089198862F8BD9801000840F03D409D0100080549002805D005494A78427009780170002108467047000001001600A101000829
:406EC00038B504000C4816D06178012913D801F035F9607812F0FAFD207000280AD169460870684600F090F869460878012801D104202070002038BD0100160010B5094988
:406F000000280CD00278082A09D24278042A06D205494A700078087012F0B8FA0021084610BD000001001600A101000810B504460448032C05D801F001F9204612F0D2FDD4
:406F4000002010BDFFFF160010B50400054808D06178012905D801F0F1F8204612F000FE002010BD0100160010B5FCF75FFE0122084992040028084B086804D0C018016ADD
:406F80001143016210BDC018016A9143016212F0D5F910BD9801000880F03D400949087805280ED14A780848084900684018002A03D1416B490849004163C16A012211431D
:406FC000C16270479F0100089801000840F03D4001480078704700009F01000802484078022800D0012070479D010008012807D0032807D0042803D0052803D0FF20704750
:40700000012070470220704710B5040002D012F0EBF9207010BD000001494870704700009F01000810B50446FCF766FA062C01D9FF2C01D102480470FCF748FA10BD000035
:407040009F01000801494870704700009D010008002070471CB5002469460C70022001902346054A054800F01DFA04480068401C00D1034C20461CBDC9700010A4010008EE
:40708000FFFF00003EB50F4A01460D4800230124126800290BD0012908D168460093048143816946104600F0F8F980B23EBD68460093048143816946104600F0E9F9F4E748
:4070C000FFFF0000A401000810B50089002100280BD0012802D0052807D103E000200DF0D9FD02E0084600F01DF9002010BD000010B50248006800F07FFC10BDA40100081E
:40710000FFB581B01F00154606463CD001F016F8FCF7F2F92F49304B4878401CC0B2044606E02201D218127A202A2AD0641CE4B2202CF6D3002406E02201D218127A202A15
:407140001FD0641CE4B28442F6D32024202C1AD03470029821490202120A200602432001C61872601F501B4869180078009120280CD0FFF7CBFC0746BD4223D3281AF060EC
:407180001BE04C70E2E7164805B0F0BD13484042854207D9FFF7F6FC014611488142F3D0009807E0A8B2FFF7EDFC01460C488142EAD00020F060074804703472FCF786F9E2
:4071C0000020E1E7FFF7EEFC781B012100F046F9DCE70000A8010008B81F0008C063FFFFFFFF000070B5074CA5780D2D07D2FFF787FF002802D1A178491CA17070BD02484C
:4072000070BD0000A8010008FFFF000070B5074CE578002D01D0064870BDFFF771FF0028FAD1E178491CE17070BD0000A8010008FFFF0000F8B520280BD2234D07017C1901
